:100000000C94E9060C9406070C9406070C9406075A
:100010000C9406070C9406070C9406070C9406072C
:100020000C9406070C9406070C94B42B0C94882CA3
:100030000C9427260C9406070C9406070C940607CC
:100040000C9406070C9406070C9406070C940607FC
:100050000C9406070C94AE260C9406070C94060725
:100060000C9406070C9406070C9406070C940607DC
:100070000C9406070C9406070C9406070C940607CC
:100080000C9406070C9406070C9406070C940607BC
:100090000C9406070C9406070C9406070C940607AC
:1000A0000C9406070C9406070C940607290014000C
:1000B0001A000800150017002B0004281624072139
:1000C00009220A00E0001D001B00060019000500BF
:1000D0001C0018000C00120013004C000B000D3225
:1000E0000E310F2433383400110010003600370071
:1000F0003800E50029432B412C0028422A44000007
:10010000350059005A005B005C005D0001002102CF
:100110002E02260227021F0231001E0220022F0299
:10012000300235025E005F00600061006200010085
:100130003102560067002D025500010024022F00F5
:100140003000220223020100010000000100010032
:1001500001000000010000000000CD000000B2001E
:1001600001000000CF00CE00D00000000100000020
:10017000DB00DC00DA00D9000000000052000000C3
:10018000000001000000500051004F00000001007D
:100190004A004D004B004E004900010001000100E3
:1001A0002C000000010000002778257823782178B2
:1001B0000000207828782678247822780000000033
:1001C000000000000000000000000000A900AB00DB
:1001D000AE00BB0000000000AA00AC00AD00BC00F7
:1001E00000000000A8000000000000000000007CEB
:1001F0000000000000000000000000003A003B008A
:100200003C003D003E003F00680069006A006B0052
:100210006C006D000000E300E200E000E10000007F
:100220004000410042004300440045006E006F0062
:1002300070007100720073004A004D004B004E00C8
:100240004900000001000100010001000000000061
:1002500044454255473A2064697361626C65642E77
:100260000A0044454255473A20656E61626C6564F8
:100270002E0A000A0025303258006C65645F7461F4
:10028000736B3A20004F6E6573686F743A20616338
:10029000746976653A2025640A000A0025303862C0
:1002A000003A200025303258000A722F6320303186
:1002B0003233343536370A007267626C69676874A6
:1002C0002074696D65722064697361626C652E0AC1
:1002D000007267626C696768742074696D6572206A
:1002E000656E61626C65642E0A007267626C696794
:1002F00068742073657420687376205B4E4F4545A3
:1003000050524F4D5D3A2025752C25752C25750AC8
:10031000007267626C696768742073657420687323
:1003200076205B454550524F4D5D3A2025752C2572
:10033000752C25750A007267626C69676874207293
:1003400061696E626F7720736574206873763A20F6
:1003500025642C25642C25642C25750A007267629F
:100360006C696768742064697361626C65205B4EB8
:100370004F454550524F4D5D3A207267626C696738
:1003800068745F636F6E6669672E656E61626C6527
:10039000203D2025750A007267626C6967687420C9
:1003A00064697361626C65205B454550524F4D5DD9
:1003B0003A207267626C696768745F636F6E666922
:1003C000672E656E61626C65203D2025750A00729E
:1003D00067626C6967687420656E61626C65205B3A
:1003E0004E4F454550524F4D5D3A207267626C69E1
:1003F0006768745F636F6E6669672E656E61626CB5
:1004000065203D2025750A007267626C6967687413
:1004100020656E61626C65205B454550524F4D5DB5
:100420003A207267626C696768745F636F6E6669B1
:10043000672E656E61626C65203D2025750A00722D
:1004400067626C6967687420746F67676C65205BAE
:10045000454550524F4D5D3A207267626C6967683E
:10046000745F636F6E6669672E656E61626C65208E
:100470003D2025750A007267626C69676874206D9B
:100480006F6465205B4E4F454550524F4D5D3A209D
:1004900025750A007267626C69676874206D6F6405
:1004A00065205B454550524F4D5D3A2025750A0049
:1004B0007267626C696768745F696E6974207267DD
:1004C000626C696768745F636F6E6669672E6D6FD3
:1004D0006465203D20302E20577269746520646564
:1004E0006661756C742076616C75657320746F201D
:1004F000454550524F4D2E0A007267626C6967681D
:10050000745F696E6974206565636F6E66696720E4
:100510006973206E6F7420656E61626C65642E0A6B
:10052000007267626C696768745F696E69742073D2
:1005300074617274210A007267626C696768745F23
:10054000696E69742063616C6C65642E0A00726761
:10055000626C696768745F636F6E6669672E73703B
:10056000656564203D2025640A007267626C6967D6
:1005700068745F636F6E6669672E76616C203D20DC
:1005800025640A007267626C696768745F636F6EE6
:100590006669672E736174203D2025640A007267C6
:1005A000626C696768745F636F6E6669672E6875F1
:1005B00065203D2025640A007267686C696768746D
:1005C0005F636F6E6669672E6D6F6465203D2025E1
:1005D000640A007267626C696768745F636F6E6655
:1005E00069672E656E61626C65203D2025640A0096
:1005F0007267626C696768745F636F6E66696720B3
:10060000454550524F4D3A0A001E0F0500047F3FEA
:100610001F643214643214783C1E1E140A0522230F
:10062000252628292A2C2D2F3032333536383A3BCF
:100630003D3E4042434547494A4C4E505153555721
:10064000595A5C5E6062646668696B6D6F71737540
:1006500077797B7D7F81838587898A8C8E90929440
:1006600096989A9C9E9FA1A3A5A7A8AAACAEAFB14D
:10067000B3B4B6B8B9BBBCBEBFC1C2C3C5C6C7C997
:10068000CACBCCCDCED0D1D2D2D3D4D5D6D7D7D851
:10069000D9D9DADADBDBDBDCDCDCDCDCDDDDDDDDA3
:1006A000DCDCDCDCDCDBDBDBDADAD9D9D8D7D7D6AB
:1006B000D5D4D3D2D2D1D0CECDCCCBCAC9C7C6C562
:1006C000C3C2C1BFBEBCBBB9B8B6B4B3B1AFAEACA8
:1006D000AAA8A7A5A3A19F9E9C9A98969492908E53
:1006E0008C8A89878583817F7D7B79777573716F2C
:1006F0006D6B6968666462605E5C5A595755535108
:10070000504E4C4A4947454342403E3D3B3A3836BD
:10071000353332302F2D2C2A292826252322FFAAD3
:100720007F554000010101010101010101020202A6
:10073000020202020202030303030303030304048D
:100740000404040404050505050506060606060757
:100750000707070708080808090909090A0A0A0B10
:100760000B0B0C0C0C0D0D0D0E0E0E0F0F0F1010B1
:100770001111111212131314141515161617171838
:100780001819191A1A1B1B1C1D1D1E1E1F202021A3
:100790002222232424252626272829292A2B2C2DEA
:1007A0002D2E2F30313232333435363738393A3B0B
:1007B0003C3D3E3F404142434445464748494A4C00
:1007C0004D4E4F50515354555658595A5B5D5E5FCC
:1007D000616264656668696B6C6D6F707273757762
:1007E000787A7B7D7E8082838587888A8C8E8F91C4
:1007F000939596989A9C9EA0A2A3A5A7A9ABADAFEE
:10080000B1B3B5B7BABCBEC0C2C4C6C9CBCDCFD1D7
:10081000D4D6D8DBDDDFE2E4E7E9EBEEF0F3F5F880
:10082000FAFDFF3F00433E20004C25640A000A0900
:100830002D20537461747573202D0A686F73745F73
:100840006B6579626F6172645F6C65647328293AC5
:1008500020253032580A6B6579626F6172645F706F
:10086000726F746F636F6C3A20253032580A6B6573
:1008700079626F6172645F69646C653A2025303219
:10088000580A74696D65725F726561643332282934
:100890003A202530386C580A002573000A092D20AB
:1008A000436F6E736F6C65202D0A4553432F713A69
:1008B00009717569740A000A092D204D6167696321
:1008C000202D0A443A094465627567204D657373AB
:1008D00061676520546F67676C650A583A094D6116
:1008E00074726978204465627567204D6F64652075
:1008F000546F67676C65202D2053686F77206B6598
:10090000797072657373657320696E206D6174729E
:10091000697820677269640A4B3A094B6579626F9E
:1009200061726420446562756720546F67676C6507
:10093000202D2053686F77206B6579707265737313
:10094000207265706F72740A4D3A0944656275676A
:10095000204D6F75736520546F67676C650A563A52
:100960000956657273696F6E0A533A09537461745C
:1009700075730A433A09416374697661746520436B
:100980006F6E736F6C65204D6F64650A46312D463E
:1009900031303A0953776974636820746F204C6171
:1009A00079657220302D392028463130203D204C89
:1009B00030290A302D393A095377697463682074F5
:1009C0006F204C6179657220302D390A47524156AB
:1009D000453A0953776974636820746F204C6179D4
:1009E000657220302028616C7465726E61746529AF
:1009F0000A423A094A756D7020746F20426F6F7415
:100A00006C6F616465720A4553433A094A756D70AB
:100A100020746F20426F6F746C6F61646572202860
:100A2000616C7465726E617465290A453A09507289
:100A3000696E7420454550524F4D2053657474695A
:100A40006E67730A4241434B53504143453A094351
:100A50006C65617220454550524F4D0A006B6579B7
:100A60006D61705F636F6E6669672E7261773A20A1
:100A7000253032580A2E737761705F636F6E74721F
:100A80006F6C5F636170736C6F636B3A2025750ADE
:100A90002E636170736C6F636B5F746F5F636F6EF7
:100AA00074726F6C3A2025750A2E737761705F6CD3
:100AB00063746C5F6C6775693A2025750A2E7377CD
:100AC00061705F7263746C5F726775693A20257537
:100AD0000A2E737761705F6C616C745F6C67756907
:100AE0003A2025750A2E737761705F72616C745FAE
:100AF000726775693A2025750A2E6E6F5F67756992
:100B00003A2025750A2E737761705F67726176658A
:100B10005F6573633A2025750A2E737761705F6293
:100B200061636B736C6173685F6261636B73706147
:100B300063653A2025750A2E6E6B726F3A20257513
:100B40000A2E737761705F6573636170655F6361BF
:100B500070736C6F636B3A2025750A00646562756B
:100B6000675F636F6E6669672E7261773A20253022
:100B700032580A2E656E61626C653A2025750A2E20
:100B80006D61747269783A2025750A2E6B657962F9
:100B90006F6172643A2025750A2E6D6F7573653A20
:100BA0002025750A006565636F6E6669673A0A6499
:100BB000656661756C745F6C617965723A20257544
:100BC0000A003F000A6D6F7573653A206F66660A0A
:100BD000000A6D6F7573653A206F6E0A000A6B65C7
:100BE00079626F6172643A206F66660A000A6B650B
:100BF00079626F6172643A206F6E0A000A6D6174E7
:100C00007269783A206F66660A000A6D61747269CB
:100C1000783A206F6E0A000A64656275673A206F41
:100C200066660A000A64656275673A206F6E0A009C
:100C30000A0A4A756D70696E6720746F20626F6F63
:100C4000746C6F616465722E2E2E2000433E20006E
:100C5000436C656172696E6720454550524F4D0A7D
:100C6000000A002530325820006B6579626F61728E
:100C7000645F7265706F72743A200073757370658B
:100C80006E64696E67206B6579626F6172640D0ACC
:100C9000005B575D005B535D005B525D005B445D34
:100CA000005B435D00140372006500760069007507
:100CB000006E0067003400310000000C0367007410
:100CC0000069007000730000000403090409025B5E
:100CD00000030100A0FA090400000103010100095A
:100CE00021110100012244000705810308000109C8
:100CF000040100010300000009211101000122325A
:100D0000000705820320000109040200020300001D
:100D100000092111010001222200070583032000A0
:100D20000107050303200001120100020000000872
:100D30000778CBDC0100010200010631FF0974A134
:100D4000010975150026FF009520750881020976B6
:100D5000150026FF00952075089102C00501098045
:100D6000A101850319012AB700150126B7009501D5
:100D700075108100C0050C0901A101850419012A23
:100D8000A002150126A002950175108100C0050181
:100D90000906A101050719E029E7150025019508B5
:100DA000750181029501750881010507190029FF68
:100DB000150026FF00950675088100050819012910
:100DC00005150025019505750191029501750391A1
:100DD00001C011241FBECFEFDAE0DEBFCDBF12E0AD
:100DE000A0E0B1E0E4E0F1E602C005900D92A03988
:100DF000B107D9F723E0A0E9B2E001C01D92A83CF9
:100E0000B207E1F70E94B2170C942C300C9400004A
:100E1000FF93EF93E0919002F0919102309709F0E7
:100E20000995EF91FF910895FC018591803011F0B3
:100E3000EFDFFBCF0895FF27E0E230E247FF0CC071
:100E4000419597FF09C0EDE260957095809590956A
:100E5000611D711D811D911D27FF02C0219530E389
:100E600050E2AA27660F771F881F991FAA1FA41791
:100E700010F0A41B63955A95A9F7AA3008F0A95F52
:100E8000A05DAF93F395611571058105910541F75B
:100E9000ED3211F4EF93F395F21718F43F93F395B5
:100EA000FBCF8F91B5DFFA95E1F70895E991F991BC
:100EB0008591803021F0853219F0AADFF9CF0895AD
:100EC00020E0E89455915532C1F3503311F4689401
:100ED00055915A3348F4505390F3220F022E220FAB
:100EE000220F200D250FF4CF0EF4219589919991B1
:100EF000533619F3533729F1533559F1BC0188277B
:100F00009927E8945C3621F48991999168945591D8
:100F1000543639F446EF7EF077FF0DC08FEF9FEF28
:100F20000AC055374AE039F0583540E121F05236D1
:100F300042E009F00895FF93EF937DDFEF91FF9179
:100F4000B7CFFF93EF93FC0181918030B9F360DF5D
:100F5000FBCFFF93EF9368DFF1CFDF93CF93CDB754
:100F6000DEB72596A3DFCF91DF9108958530B8F4E1
:100F70006730A8F4463098F450E096E0699F400D41
:100F8000511D1124FA019AE2899FE00DF11D1124EF
:100F9000EE0FFF1FE455FF4F85919491089581E076
:100FA00090E008950E94B607089581E008950E9498
:100FB000D507089581E008950E94D50708950E94FD
:100FC000DC07089508950E94E2070895A6E0B0E0C6
:100FD000ECEEF7E00C94D82E49835A839E8330912F
:100FE000970289819A8131111AC03E81332399F089
:100FF000222389F00E94190E182F682F89819A8167
:101000000E94F50D69817A81812F0E94081526962C
:10101000E3E00C94F42E0E94070E182FF3CF0E94E9
:10102000190E69817A81F1CFFC01262F408151810F
:1010300062817381848195810E94E6070895CF9330
:10104000DF93EC0161E00E941408BE010E94D70703
:10105000DF91CF910895CF93DF93EC0160E00E9480
:101060001408BE010E94E307DF91CF91089508950F
:101070000E94CA0C0E9437082FEF84E39CE02150A5
:1010800080409040E1F700C0000008950E943808B9
:101090000E94D22608950E9438080E94E3260895EF
:1010A0000F931F93CF93DF938C0161E00E9414088C
:1010B000EC01B8010E94DF07811106C080E0DF91DA
:1010C000CF911F910F910895B801CE010E94A624DF
:1010D0008823A1F3B801CE010E947121882371F306
:1010E000B801CE010E941824882341F3B801CE0133
:1010F0000E94D320882311F3F8018581882369F0A9
:10110000C330FCE7DF0781F160F4C130ECE7DE07B4
:1011100069F1C0F4C115DC4791F0C8010E94DA07FB
:10112000CECFCB35ECE7DE0739F1CC35FCE7DF0776
:1011300001F1CA35DC4789F70E946212EECF0E94A6
:101140004608BCCF90911B03892F8E7F90FF816052
:1011500080931B0380FF05C082E692E00E94140783
:10116000ADCF80E592E0FACF0E946A120E944B0850
:10117000A5CF0E945812D1CF0E946612CECF0E94F6
:1011800004260E9402090E94092008950E9406096F
:101190000E949A1F0E9409260895829590E09C0162
:1011A000220F331F220F331F2C7C95958795959521
:1011B00087958373282B30E0C901880F991F8A7A9D
:1011C000359527952575822B0895089581E008951A
:1011D0000895CF93DF93D82F0E94E608C82F882365
:1011E00019F08D2F0E94E8088C2FDF91CF91089580
:1011F0000895CF93C82F0E94E5088C2F0E94E9081C
:10120000CF91089580E00E94F90808950E94EF248C
:101210000E94F9080895CF930E94EF24C82F80916F
:1012200092028C1789F1C09392020E9493266093D8
:10123000930270939402809395029093960280910A
:101240001B0382FF1EC080FF1CC08AE792E00E9441
:10125000140780911B0380FF14C01F92CF9385E772
:1012600092E09F938F930E94AD0780911B030F9094
:101270000F900F900F9080FF04C083E792E00E94D0
:1012800014078C2F0E94F908CF910895ADE0B0E0CB
:10129000ECE4F9E00C94D92E488759876A877B875C
:1012A0008C879D8791110E947D111F8286E0FE012F
:1012B0003896DE01119601900D928A95E1F78D81A5
:1012C00081110DC029813A814B815C816D817E81C4
:1012D0008F810E94B0102D96E2E00C94F52ECE0185
:1012E00001960E941F088111EDCFF5CFFC012481EA
:1012F000213021F4808191810E944B0E0895CF937B
:10130000C82F8823C9F08238C9F40E94FC2481FDCB
:1013100013C089E30E9435110E94B6112FEF87EEAA
:1013200093E0215080409040E1F700C0000089E345
:101330000E943D110E94B611CF9108958338A1F407
:101340000E94FC2480FDF8CF83E50E9435110E94A5
:10135000B6112FEF81EE94E0215080409040E1F7EC
:1013600000C0000083E5E4CF8438A1F40E94FC248F
:1013700082FDE2CF87E40E9435110E94B6112FEF63
:1013800081EE94E0215080409040E1F700C00000E1
:1013900087E4CECF8CEF8C0F813AB8F48C2F0E946B
:1013A000D5238111C9CF6C2F809104019091050143
:1013B0000E949F25882329F08C2F0E943D110E94B6
:1013C000B6118C2F0E943511B5CF80E28C0F88307A
:1013D00048F4C77081E001C0880FCA95EAF70E94FF
:1013E0006011A8CFEBE5EC0FE33040F4F0E0E85AF1
:1013F000FE4F808190E00E9443259ECFC85ACB319A
:1014000008F09ACFEC2FF0E0EE0FFF1FEE5DFE4FDD
:10141000808191810E9468258FCF882309F44DC077
:10142000823879F40E94FC2481FF47C089E30E943E
:1014300035110E94B61189E30E943D110E94B61138
:101440000895833859F40E94FC2480FF36C083E558
:101450000E9435110E94B61183E5EECF843859F40D
:101460000E94FC2482FF29C087E40E9435110E945B
:10147000B61187E4E1CF9CEF980F913AE8F290E241
:10148000980F983050F4877091E001C0990F8A95B9
:10149000EAF7892F0E946611D1CF9BE5980F933010
:1014A00028F490E080E00E9443250895885A8B310B
:1014B00020F490E080E00E94682508951F93CF9368
:1014C000DF93182FEB010E947F09209739F4812FB9
:1014D0000E940D0ADF91CF911F9108958FE99FE03F
:1014E0000197F1F700C000002197EFCF70E060E0B6
:1014F000893311F460E570E00E945E0A0895882344
:1015000021F00E9460110E94B6110895882321F0F5
:101510000E9466110E94B6110895B0E0A0E0E3E9D0
:10152000FAE00C94D22E6C01D62FC72FFC01158146
:10153000068102950F700E945611E82E8823E9F06B
:10154000E12E1123D1F08C2F807F803451F080E286
:101550008D0F8830F8F0011104C08C2F807E80320E
:10156000C9F080917F0382FF15C082E00E941912AA
:101570000E94561191E0E82EE926BC2EB2949FE01D
:10158000B922FBE0FB15B8F1EB2DF0E0E25DFF4C7A
:101590000C94922EE12CF1CF0C2F0F70C07F11F024
:1015A0000295007F112399F0002359F080E28D0FFE
:1015B000883010F0D11107C0802F0E9460110E9466
:1015C000B6118D2F5AC0802F0E947011F8CF8D2F29
:1015D0000E940D0A002379F080E28D0F883010F010
:1015E000D11104C0802F0E94661103C0802F0E9479
:1015F00076110E94B611EB2DE850FF0B349720F4C2
:101600000E94EF240E94F908EE2089F00E945211F6
:1016100080FD0DC0F60115820E944C110E94530DF1
:10162000C6010E94950C0E944C110E94630DCDB71B
:10163000DEB7E9E00C94EE2E2C2F2F70F22EC07F37
:10164000C03219F0F29480EFF822DD2341F0D1305E
:10165000D1F1112309F444C00023F1F0B2CF8091FD
:101660007F0382FD15C0112359F0FF2029F08F2D33
:101670000E9460110E94B61180E00E947F09BBCFDA
:1016800080E00E940D0AFF2009F4B5CF8F2DABCF6B
:10169000112369F0011104C08F2D0E947F0AABCF86
:1016A000013009F0A8CF8F2D0E949411A4CF011111
:1016B000A2CF8F2D0E94860A8F2D0E94A0118F2D00
:1016C0000E94841198CF112321F0063008F093CFA7
:1016D000E3CF053008F08FCF8F2D0E94860A8BCF85
:1016E0000023D1F3D93349F43FEF87EE93E0315033
:1016F00080409040E1F700C000008D2F0E940D0A4D
:101700007ACF8C2F86958695837069F0813009F0A9
:1017100072CF8D2F9C2F9370111102C080E090E04A
:101720000E94682568CF8D2F9C2F9370111102C0E5
:1017300080E090E00E9443255ECF8C2F8370A1F55E
:10174000111159CF4D2F429546954770440F440FC4
:101750002D2F2F7030E0042E02C0220F331F0A9469
:10176000E2F790E080E0D4FF09C08FE090E002C093
:10177000880F991F4A95E2F780959095C695C69572
:10178000C370822B932BC23049F058F4C13019F04A
:101790000E94230D30CF0E941A0D2DCF0E942C0DD8
:1017A0002ACF0E94170D27CF8695112311F08C2F79
:1017B0008170882309F41FCF4D2F429546954770BD
:1017C000440F440F2D2F2F7030E0042E02C0220F43
:1017D000331F0A94E2F790E080E0D4FF09C08FE065
:1017E00090E002C0880F991F4A95E2F78095909586
:1017F000C695C695C370822B932BC23049F058F41E
:10180000C13019F00E948E0DF6CE0E94850DF3CEE8
:101810000E94970DF0CE0E943B0DEDCECF701123AC
:1018200029F08C2F0E94530D8D2F37CF8D2F0E94C2
:10183000860A8C2F0E94630DDECED23F41F160F408
:10184000D03FB9F0D13F81F0112309F446C0011116
:10185000B8CE8C2F8F711FC0D33F01F1D43FA1F7B9
:1018600080917F0382FD24C08C2F8F71112311F38F
:1018700012C0112341F0053008F0BDCE8C2F8F71BE
:101880000E94750DB8CE063008F0B5CEF7CF8C2F7C
:101890008F711111CFCF0E94530DADCE112329F0BE
:1018A0008C2F8F710E94470DA6CE0E94420DA3CEB1
:1018B000112349F0CF718C2F0E94530D63E08C2FC0
:1018C0000E94FB1198CE81E00E941912023008F4A8
:1018D00092CE82E00E9419128ECE002359F0D933A5
:1018E00009F00BCFEFEFF7EE23E0E150F04020409E
:1018F000E1F701CF8C2F8F719DCF0F931F93CF9363
:10190000DF93EC01688179818D810E94560E8C01F4
:101910000E94A00D0E94160DB801CE010E948D0AF2
:10192000DF91CF911F910F910895CF93DF93EC0139
:101930008C81882399F0CE010E945008811111C03A
:101940000E945611882351F08D81882339F08091AF
:101950007F0382FF03C082E00E941912DF91CF91C2
:101960000895CE010E947D0CCE010E942B08F6CF77
:1019700090E080E00E94432590E080E00E9468258E
:101980000E947D110E94B61108950E9445110E9487
:10199000B80C08950E946D110E94C50C089592958F
:1019A0009F70963091F058F4925F9F70923058F487
:1019B000803F19F030F4883E30F481E008959A5F5A
:1019C000F4CF843FD1F380E00895883EB0F3813FA7
:1019D000D1F7F3CFFC012481222339F0808191815A
:1019E0000E944B0E0E94CF0C089580E00895A6E05F
:1019F000B0E0EDEFFCE00C94D92E2696E2E00C94DA
:101A0000F52EA7E0B0E0E7E0FDE00C94D92E279694
:101A1000E2E00C94F52E08950E940B0D08950E94AB
:101A20000C0D9093B3028093B202089508950E9422
:101A30000F0D08952091B2023091B302822B932BA7
:101A40000E940F0D08952091B2023091B3028223BB
:101A500093230E940F0D08952091B2023091B3029A
:101A6000822793270E940F0D08950E940B0D089561
:101A70000E94350D08950E94380D9093B102809315
:101A8000B002089590E080E00E943B0D089521E0AF
:101A900030E0A90102C0440F551F8A95E2F7CA0140
:101AA0000E943B0D089521E030E002C0220F331F59
:101AB0008A95E2F78091B0029091B102822B932B2C
:101AC0000E943B0D089521E030E002C0220F331F39
:101AD0008A95E2F7209530958091B0029091B102FD
:101AE000822393230E943B0D089521E030E002C041
:101AF000220F331F8A95E2F78091B0029091B102D4
:101B0000822793270E943B0D08952091B0023091C7
:101B1000B102822B932B0E943B0D08952091B002BD
:101B20003091B102822393230E943B0D08952091AE
:101B3000B0023091B102822793270E943B0D089595
:101B40000895262F277091E001C0990F2A95EAF792
:101B500023E0769567952A95E1F7660F771F660F64
:101B6000771FFA01E60FF71F50E040E0682F70E0A2
:101B70008191DF0111979B01042E02C036952795B4
:101B80000A94E2F7217021952827292328272C93EE
:101B90004F5F5F4F4430510559F70895A82FA77044
:101BA00023E0969587952A95E1F7880F991F880F6E
:101BB000991FFB01E80FF91F50E040E080E0219100
:101BC00030E00A2E02C0369527950A94E2F721707C
:101BD0003327042E01C0220F0A94EAF7822B4F5FAD
:101BE0005F4F4430510559F70895262F973070F410
:101BF000863060F4682F70E086E0989F600D711D5C
:101C0000112448E952E0822F0E94A10D0895292F46
:101C1000973068F4863058F490E068E972E036E076
:101C2000239F800D911D11240E94CE0D089580E008
:101C30000895B0E0A0E0EFE1FEE00C94D22E7C012C
:101C40000091B0021091B1028091B2029091B30262
:101C5000082B192BCFE0D0E0CC24C394D12CBC2E80
:101C6000C6010C2E02C0880F991F0A94E2F7802348
:101C70009123892B49F4219790F7B12C8B2DCDB767
:101C8000DEB7E9E00C94EE2EB7018C2F0E941415FC
:101C9000019789F3F3CFCF93DF93EC010E94190EE4
:101CA000BE010E941415DF91CF9108951F93CF9329
:101CB000DF93EB0190919702992339F0CB010E94B9
:101CC0004B0EDF91CF911F910895882369F0CB01CE
:101CD0000E94190E182F682FCE010E94F50DBE012B
:101CE000812F0E941415EDCFCB010E94070E182FF3
:101CF000F6CF1F93CF93DF93C091B40217E080918A
:101D0000B5028C1304C0DF91CF911F910895D0E0EC
:101D10001C9FF0011D9FF00D1124EA54FD4F2081FE
:101D20003181428153816481758186810E94010DD8
:101D30002196C770E4CF2091EE023091EF024091DE
:101D4000F0025091F1026091F2027091F3028091E1
:101D5000F4020E94010D0895CF93DF938091F40265
:101D6000807F09F04DC08091F302882309F448C0B8
:101D7000E091B4025091B502C091EF02D091EE0211
:101D80006091F0027091F10247E05E17C9F18E2F69
:101D900090E0E49FF0011124EA54FD4F24812223B6
:101DA00091F1489FF001499FF00D1124DF01AA54E1
:101DB000BD4F11962C9111972C1325C02C912D13EA
:101DC00022C015962C91159721111DC012962D91A8
:101DD0003C91261B370B283C3105A8F48091F40276
:101DE0008F7080618093F402E454FD4F80818F7086
:101DF000806180838EEE92E00E94950C0E94790EA5
:101E0000DF91CF910895FC013196E770BECF482F46
:101E10002091B4029091B50257E0291302C080E0EE
:101E2000089530E0529FF001539FF00D1124EA54C1
:101E3000FD4F8181681306C08081481303C08581EE
:101E40008111EECF2F5F3F4F2770E7CFA4E1B0E0C5
:101E5000ECE2FFE00C94CF2E8C0186E0F801DE016D
:101E60001F9601900D928A95E1F7F8018481E58033
:101E70009EEEA92E92E0B92E9091F20291111FC010
:101E80008823D1F0EE20A9F0C8010E94EA0CF82EB8
:101E9000882379F087E0F801D50101900D928A95A9
:101EA000E1F7C5010E9476090E94AC0E0E949B0ECC
:101EB0005FC0C8010E94950CFF24F39459C0C080F4
:101EC000D18082809380F090F3022091F0023091D3
:101ED000F102A401421B530BFF2009F4F9C0483C56
:101EE000510508F0A7C0882309F442C09091EF0281
:101EF0008091F402282F207F09F05CC09D1116C04C
:101F00009091EE02C91212C0E1104EC08F70806134
:101F10008093F4020E949B0E8EEE92E00E94950C3C
:101F20008091F402F8018683F12C22C0E1103CC0BC
:101F30006D2D8C2D0E94070F6D2D8C2D0E94070F8B
:101F4000E82E8111F1CFCF86D88A8F8598890E949B
:101F50004B0E292F22952F70243078F49F70223059
:101F6000A8F09923B9F0F8019681907F99F4FE2C9E
:101F70008F2D6496ECE00C94EB2E2A5F2F702230AC
:101F800068F0C8010E94950CEF2CF1CF992311F055
:101F9000882369F3805E883050F3F3CF803F38F3B5
:101FA000815F833070F7E3CF8091F402816080938A
:101FB000F402BACF9D1113C09091EE02C9120FC066
:101FC000E1100DC08683C8010E94950C87E0F801DE
:101FD000AEEEB2E001900D928A95E1F767CFC801AD
:101FE0000E94EA0C882309F464CFEE2009F461CF43
:101FF0008091F402803288F02091EE023091EF025D
:10200000398728879B868A869091F2029C871D8655
:102010008E87CE0108960E94950C87E0F801AEEEFF
:10202000B2E001900D928A95E1F70E94AC0E0E94F9
:102030009B0E42CF9091F402292F207FA1F4682DAE
:102040009A8A898AA6017A899E2D0E94F70C8EEEC3
:1020500092E00E94950C87E0F50111928A95E9F7CC
:102060000E949B0E61CF882309F482CF8091EF02FA
:102070008D1110C08091EE02C8120CC0E1100AC090
:102080009683C8010E94950C87E0F50111928A950C
:10209000E9F76ECFC8010E94EA0C882309F409CF42
:1020A000EE2009F406CF8091F402803208F4B5CF17
:1020B0002091EE023091EF023A8329839C828B8239
:1020C0009091F2029D831E828F83CE010196A3CF51
:1020D000483C5105B8F5882309F4EECEFE2CEE20DD
:1020E00009F4E7CE8091EF028D111EC08091EE02BF
:1020F000C8121AC08091F40280FD0DC0982F907F05
:1021000051F08683903F09F45ECF982F907F905FC7
:102110008F70892B57CF87E0F801AEEEB2E00190C7
:102120000D928A95E1F724CFC8010E94EA0C811133
:1021300074CF8091F40281608093F402C8010E9400
:10214000950C16CF682D9A8A898AA6017A899E2DC8
:102150000E94F70C87E0F50111928A95E9F7A6CE67
:10216000AEE0B0E0E6EBF0E10C94D82E288739879A
:102170004A875B876C877D878E87CE0108960E9491
:10218000260F8823B1F06C85662341F028853985B8
:102190004A855B857D858E850E94010D17E08091C3
:1021A000B4029091B50289133DC02E96E3E00C94E1
:1021B000F42E87E0FE013896DE01119601900D9213
:1021C0008A95E1F78C85882349F32091B50230E0A8
:1021D000C9010196877099274091B40248171906E2
:1021E00099F097E0929FD001939FB00D1124AA54CB
:1021F000BD4FFE01319601900D929A95E1F78093C3
:10220000B5020E94790ECACF0E94CA0C1092B50284
:102210001092B40287E0EEEEF2E0DF011D928A95A3
:10222000E9F7BCCF819FC00111248A549D4F0E94C1
:10223000260F882309F4B9CFE091B4021E9FF00164
:102240001124EA54FD4F2081318142815381648100
:10225000758186810E94010D8091B40290E0019603
:10226000877099278093B4029ACF682F80910401D8
:10227000909105010E94D5250895682F8091040151
:10228000909105010E94D8250895809104019091B4
:1022900005010E94DB2508958091FD0286958695B3
:1022A000869508958091FD02877008959091FD02B2
:1022B000977081E009F480E0089580910903089502
:1022C00090910903892B809309030895809590913B
:1022D0000903982390930903089510920903089520
:1022E00090910803892B809308030895809590911D
:1022F0000803982390930803089510920803089503
:1023000008950E94801108959091FE02292F28239C
:1023100031F0809589238093FE020E9481110895F7
:1023200008950E94901108959091FF02292F28236B
:10233000281729F0982B9093FF020E94911108957D
:102340009091FF02292F282331F0809589238093D3
:10235000FF020E94911108958091FF02882329F0C5
:102360001092FF0280E00E9491110895CF93DF93B5
:10237000E0910401F0910501809109038083E091CF
:102380000401F0910501808190910803892B8083DD
:102390009091FF02992381F0E0910401F0910501F1
:1023A0008081892B808380910401909105010E9496
:1023B0008D2581110E94AC11C0910401D0910501BD
:1023C00048E050E065EF72E0CE010E949F2F892B1C
:1023D00059F088E0FE01A5EFB2E001900D928A95D8
:1023E000E1F7CE010E94FF24DF91CF910895089577
:1023F0000E94F711089590917F0392FF11C098E019
:10240000899F90011124622B6093FD020E94530D5D
:102410008091FD028695869586950E94F811089513
:102420000E94530D08951092FD0280E00E94F81161
:1024300008959091FD02809589238093FD02282FB5
:10244000277069F4891759F090917F0392FF07C0B4
:102450008695869586950E94630D0E9413120895B5
:10246000CF93C82F80917F0382FB992790F99C1707
:10247000E9F0C0FB82F980937F0380917E03909105
:102480007F030E948B1282E00E94191280911B032D
:1024900080FF0CC01F92CF9385E892E09F938F93AB
:1024A0000E94AD070F900F900F900F90CF9108955D
:1024B00080917F0382FB882780F991E089270E9421
:1024C0003012089581E00E943012089580E00E9449
:1024D000301208956FEF7FEF90E080E00E94F72FB9
:1024E000089590E080E00E94C32F21E0863E9E4F39
:1024F00009F020E0822F089582E090E00E94B52F3D
:10250000089583E090E00E94B52F089584E090E064
:102510000E94C32F0895BC0184E090E00E94F72F31
:102520000895AB01BC018FE090E00E94EB2F08956D
:10253000AB01BC0183E190E00E94EB2F089560E0C5
:1025400070E0CB010E949812089560E070E0CB012A
:102550000E9491120E949F120895A8E0B0E0E3EB60
:10256000F2E10C94D92E66EE7EEF90E080E00E94BE
:10257000F72F60E082E090E00E94D92F60E083E0D6
:1025800090E00E94D92F1092B3021092B20260E044
:1025900074E184E090E00E94F72F60E086E090E034
:1025A0000E94D92F6FEF87E090E00E94D92F40E082
:1025B00050E0BA0188E090E00E94EB2F60E084E2F6
:1025C00090E00E94D92F60E087E190E00E94D92F2F
:1025D00060E08CE090E00E94D92F60E08DE090E018
:1025E0000E94D92F19821A821B821C821D821E8290
:1025F0001F82188648E050E068E170E0CE01019645
:102600000E94C92F40E050E0BA0180E290E00E94B1
:10261000EB2F0E94A5122896E2E00C94F52E0E9462
:10262000AD120895682F8EE090E00E94D92F089592
:10263000A6E0B0E0EEE1F3E10C94D72E0E948726ED
:102640008C0180910A0390910B038017910781F010
:1026500019821A820E948726682F49815A81792F10
:1026600080E090E00E94460910930B0300930A0358
:102670002696E4E00C94F32E0E94932660931703B1
:10268000709318038093190390931A0360931303B4
:10269000709314038093150390931603089508957F
:1026A00008950E944F13089508950E9454130895A9
:1026B00082E898E20E94BF170E9450130E945113B3
:1026C000089581E008950E94611308950E946113A6
:1026D0000895089508950E9469130E946A13089549
:1026E0000E940B160E94F80808950E947E260E9400
:1026F00015170E9470130E94091F0E945513089518
:10270000A6E0B0E0E6E8F3E10C94D02E0E9463135B
:1027100081110AC00E9418130E941A200E940B09FE
:102720002696EBE00C94EC2E0E942B178CE0A82E42
:1027300083E0B82E750110E0F70101917F01812F30
:102740000E9431161F5F173009F441C00817A1F32A
:1027500080911B0381FD0E9437160E946613C82ECC
:1027600010E099249394812F0E943116082FF501CF
:1027700081915F01081729F1F12CEE24E394D02E0A
:10278000D8268D2D8E21A9F0CC2099F0F9821A83BC
:102790000E9487269C838B839D8291E0802F8E21CF
:1027A00009F490E049815A816B817C818D810E947E
:1027B0004609F394EE0CF6E0FF12E3CFF5013197F2
:1027C00000831F5F173079F60E943C13A5CF0813D2
:1027D000BFCFA0CF1F93CF93DF930E941915EC01B9
:1027E000C11580E5D807F0F5C11580E4D80708F0D9
:1027F0009CC0C03ED10520F5CD3CD10508F082C07B
:10280000C83AD10578F4C53AD10508F073C0C13093
:10281000D10519F1209709F1C430D105F0F4D0E0C9
:10282000C0E01BC0C33CD105D0F7C85AD0E0CC0FE4
:10283000DD1FC55ADE4F0990D881C02DD4640DC06C
:10284000C11580E2D80708F0D1C0C11581E0D807D2
:1028500008F05AC0C83ED10510F7CE01DF91CF91E4
:102860001F910895C03682E5D80718F5C03482E577
:10287000D80708F06BC0C03282E5D80708F05FC007
:10288000C11582E5D80708F497C02C2F2695269508
:1028900080E2289F900111248C2F8370C1E0D0E04A
:1028A00002C0CC0FDD1F8A95E2F7C22BD32BDD6867
:1028B000D4CFC03A82E5D80760F4C03882E5D807A3
:1028C00008F459C0CF71D0E0DC2FCC27C46FD06A98
:1028D000C4CFC03C82E5D80708F462C0C03E82E5A0
:1028E000D80708F09CCFDC2FCC27CC27DF71C06F36
:1028F000D06AB3CFC55AD0E0CF56DE4FC881D0E002
:10290000D064ABCFD065A9CF8D2F0E94BB15182FF7
:10291000CE0199270E941915C12FD0E0DC2FCC27BA
:10292000CC27DF71C82BD92B98CFCE0199270E94D5
:102930001915CC27DF70C82BD92BD06A8ECFCF7159
:10294000D0E0DC2FCC27C16FD06A87CF2C2F269503
:102950002695277080E2289F900111248C2F837088
:10296000C1E0D0E002C0CC0FDD1F8A95E2F7C22B98
:10297000D32BDC6872CF2C2F26952695277080E20A
:10298000289F900111248C2F8370C1E0D0E002C0F9
:10299000CC0FDD1F8A95E2F7C22BD32BDA685DCF0F
:1029A0008C2F8F710E94BB15C82FD0E0DC2FCC2755
:1029B000CC27DF71D06251CF8C2F8F710E94BB1555
:1029C00055E0D695C7955A95E1F7CF70D0E0DC2F4A
:1029D000CC27282F30E084FF05C044E0220F331FAE
:1029E0004A95E1F7C22BD32BD06937CF8D2F8F714A
:1029F0000E94BB15182FCE0199270E941915C12FCF
:102A0000D0E0DC2FCC27CC27DF71C82BD92BD2CF3D
:102A1000462F773030F4663020F4672F0E94D207BB
:102A2000089590E080E008950E9408150E94EA133E
:102A3000089582389105B9F1B0F48133910509F414
:102A40007DC048F48932910509F46DC08A32910540
:102A500009F47BC008958533910509F45FC089337B
:102A6000910509F10895833E9105D9F138F4803E2E
:102A7000910529F1823E910579F10895863E9105EF
:102A8000D9F1873E910509F43EC0843E910541F598
:102A900020917F0321FF24C080917E0384FD19C013
:102AA00087EE90E0089520917E03237009F05AC0CC
:102AB00020917F0323FF14C089E290E008952091C4
:102AC0007E0320FD38C030917F0330FF09C024FF12
:102AD00043C090E080E0089520917E0322FDF7CF6F
:102AE000089520917E0322FD3AC030917F0330FD8E
:102AF00039C024FFF5CFEDCF20917E0323FFF0CF27
:102B000024FDE7CFCDCF20917E0323FD2EC0309151
:102B10007F0331FFEECF84EE90E0089520917E0395
:102B200025FFDECFC9CF20917E0325FD21C0209156
:102B30007F0323FFD5CF89E390E0D2CF20917E039E
:102B400026FFCECF8AE290E0089520917E0326FFF3
:102B5000C7CF81E390E0089583EE90E0089582EE80
:102B600090E0089580EE90E0089586EE90E008955C
:102B700085E390E0089590917E0392FF10C041E0BC
:102B8000282F2471243009F040E031E0282F2871EB
:102B9000283009F030E0431711F02CE0822793FF32
:102BA00010C041E0282F2471243109F040E031E0C9
:102BB000282F2871283109F030E0431711F02CE05C
:102BC000822730917F0330FF10C051E0282F217100
:102BD000213009F050E041E0282F2871283009F019
:102BE00040E0541711F029E0822731FF10C041E086
:102BF000282F2171213109F040E031E0282F287180
:102C0000283109F030E0431711F029E0822794FDC4
:102C1000877E089508950E947112811102C00E945A
:102C20000F130E947C1280931B030E9486129093C4
:102C30007F0380937E030E940A160E94811290E017
:102C40000E94170D8091B0029091B1020E94380D40
:102C5000089508950E942916089508950E942D163A
:102C60000895E82FF0E0E957FC4F80810895B0E027
:102C7000A0E0EDE3F6E10C94D32E89EA92E00E9405
:102C8000140787E8E82E83E0F82ED0E0C0E094EA4D
:102C9000C92E92E0D92E0CE912E0DF93CF93DF9298
:102CA000CF920E94AD0781EA92E00E941407F701DB
:102CB00081917F010E94CD081F928F931F930F93E4
:102CC0000E94AD078AE992E00E94140721968DB711
:102CD0009EB708960FB6F8949EBF0FBE8DBFC73043
:102CE000D105D9F6CDB7DEB7E8E00C94EF2E80EA37
:102CF0008A95F1F7089500C008950E947716089507
:102D0000F894E82FE295EF70F0E031A1282F2F70B2
:102D100081E090E001C0880F2A95EAF7982F9095FE
:102D2000932391A392A1892B82A3789408950F9362
:102D30001F93CF93DF93CAE9D1E089918F3F11F0C0
:102D40000E94801681E0C13AD807B9F7C4E9D1E002
:102D50000AE911E089918F3F11F00E9480160C174B
:102D60001D07C1F7DF91CF911F910F910895B0E03A
:102D7000A0E0EDEBF6E10C94D32EEC01D62E062F5D
:102D800010E0C80186569E4F7C01FC0180818F3F78
:102D900009F444C0F894E82FE295EF70F0E091A1B7
:102DA0008F7021E030E001C0220F8A95EAF7892F69
:102DB000822B81A382A12095282322A378940E94AC
:102DC0007B16E4E9F1E031E0C12C21912F3F59F16C
:102DD000A22FA295AF70B0E090968C9190E02F70EA
:102DE00002C0959587952A95E2F780FD1CC0832F38
:102DF000C82A330F81E0EA39F80739F7F7018081F3
:102E00008F3F11F00E94801661E0C11001C060E0A8
:102E10008D2D0E947D16C00FD11FC882CDB7DEB7A1
:102E2000E8E00C94EF2E80E0E3CF0E94971687E055
:102E3000E7E8F3E0DF01982F1D929A95E9F7E0E8C3
:102E4000F3E0DF011D928A95E9F787E00E9466179B
:102E50000E942A160895A7E0B0E0E1E3F7E10C94A0
:102E6000D62E8E010F5F1F4F87E0F80111928A95D1
:102E7000E9F7F12C6F2DC8010E94B716F394F7E023
:102E8000FF12F8CF47E050E0B80180E893E00E94DD
:102E90009F2F21E0009709F420E0892B41F087E083
:102EA000F801A0E8B3E001900D928A95E1F747E0C0
:102EB00067E873E080E893E00E946717182F0E948C
:102EC0002E16812F2796E5E00C94F22E0895CF92CE
:102ED000DF92EF92FF920F931F93CF936C017B01D0
:102EE000042F222349F081E080931E030E9487264D
:102EF00090931D0380931C03C0911E03C1110AC04F
:102F0000C0E08C2FCF911F910F91FF90EF90DF9039
:102F1000CF90089580911C0390911D030E949F26DD
:102F2000059770F310E0A801B601C7010E949F2F1A
:102F3000892B41F0A801B601C7010E94AC2F109265
:102F40001E03DFCFC0E0FBCF0E94FE280E94751356
:102F50000E940B2908950E9410290E9480130E944C
:102F6000322908950E9420260E94E4280E945813C6
:102F70000E94A4170E94AB170E946B13FBCF909383
:102F80009102809390020895EF92FF920F931F9306
:102F9000CF93DF93EB01E82FD1110EC0442321F032
:102FA000F0E0ED5DF84FE4916E2F7E2F8E2FCDB7C0
:102FB000DEB7E6E00C94F12E0D2F10E0282F30E064
:102FC000442329F02D5D384FF901249130E0F6E0DB
:102FD000CF9FC0011124EFEFF0E0BF010E94482E07
:102FE000AB018C2F90E0880F991FA5E5A49FB0013D
:102FF000A59F700D1124861B970B982F990F980F82
:10300000BF01601B710B629FD001639FB00D729F67
:10301000B00D11248B2F9D9FB0011124672F7727AE
:10302000EF01C61BD70BBE01629FE001639FD00D6D
:10303000729FD00D11247F01E91AF108E09EB001C2
:10304000E19E700DF09E700D1124672F7727E61B0F
:10305000F70BE29F8001E39F100DF29F100D1124EA
:10306000E12F722F4230510599F048F44115510576
:1030700069F04130510581F0EB2F8D2F07C04430AE
:10308000510569F080F046305105B1F76E2F8FCFB2
:10309000E22F7B2F812FFACFE22F7D2FF7CFEB2F5F
:1030A000822F712FF3CF7B2F822FED2FEFCF41E0B7
:1030B0000E94C417089508950E9457180895CF9349
:1030C000DF93762FE901682F842F0E945C187983A3
:1030D00068838A83DF91CF91089580918E03982F22
:1030E0009E7F29F48170826080938E0308958635D7
:1030F000E8F381708465F8CFB0E0A0E0E2E8F8E1A1
:103100000C94D32E88E090E00E94BD2F6B017C01CF
:1031100084E290E00E94B52F282F30E040E050E09C
:1031200060E070E080E090E000E20E94002FB22FAB
:10313000A32FF42FE52FD62FC72F97018601BC2987
:10314000A12BFE295E2F532B2B2F3A2F4F2F6D2FA4
:103150007C2FCDB7DEB7E8E00C94EF2EB0E0A0E016
:10316000E4EBF8E10C94CF2E49015A016B017C018C
:103170000E946D188401A4016A2D7B2D88E090E0E7
:103180000E94EB2F94014A2D5B2DB601C70100E28E
:103190000E941B2F622F84E290E00E94D92FCDB7AE
:1031A000DEB7ECE00C94EB2EEEE8F3E083E08083F6
:1031B00011828FEF828383831482758123E030E054
:1031C0004FEF5FEF60E0868197810E94AE1808950F
:1031D00080911B0380FF76C080EF95E09F938F93D3
:1031E0000E94AD0780911B030F900F9080FF6AC073
:1031F00080918E0381701F928F9383ED95E09F9352
:103200008F930E94AD0780911B030F900F900F903A
:103210000F9080FF57C080918E0386951F928F93E9
:1032200088EB95E09F938F930E94AD0780911B03DD
:103230000F900F900F900F9080FF44C080918F03EC
:103240001F928F938EE995E09F938F930E94AD0715
:1032500080911B030F900F900F900F9080FF32C052
:10326000809190031F928F9384E895E09F938F93B2
:103270000E94AD0780911B030F900F900F900F904D
:1032800080FF20C0809191031F928F938AE695E082
:103290009F938F930E94AD0780911B030F900F9017
:1032A0000F900F9080FF0EC0809192031F928F931A
:1032B0008EE495E09F938F930E94AD070F900F903F
:1032C0000F900F90089580918E0380FF02C0869525
:1032D000089580E0089590919203933018F49F5FD1
:1032E00090939203882391F020918E0330918F0365
:1032F00040919003509191036091920370919303D8
:1033000080919403909195030E94AE18089581E0F6
:103310000E946B19089590919203992319F091508E
:1033200090939203882391F020918E0330918F0324
:103330004091900350919103609192037091930397
:1033400080919403909195030E94AE18089581E0B6
:103350000E948B19089570E00E94452108956091A4
:103360000A0180918E0380FF0BC08091090123E048
:10337000829FC00111248A569C4F0E94AB19089568
:1033800080910B0190910C0123E0829FF0011124A8
:10339000EA56FC4F891748F71182108212828F5F1C
:1033A0003396F8CF90918E0390FF0EC090910B0151
:1033B00020910C0133E0939FF0011124EA56FC4F59
:1033C000921718F00E94AF19089581836083428399
:1033D0009F5F3396F5CFA3E0B0E0E1EFF9E10C9405
:1033E000D92E90918E0390FF0AC09E012F5F3F4F10
:1033F0000E945F184B8169818A810E94D2192396AD
:10340000E2E00C94F52ECF93DF93EC01EC81F0E039
:10341000E25EF94F4491EEE8F3E0628181810E941F
:10342000EB198C818F5F8C83DF91CF910895CF93BF
:10343000DF93EC01EEE8F3E0438162818C810E942E
:10344000EB198C818F5F8C83DF91CF910895A3E07E
:10345000B0E0EDE2FAE10C94D72E8C0180911F03CD
:1034600081110AC09E012F5F3F4F4FEF6FEF0E9407
:103470005F188A8180931F03F8016481613069F0CD
:1034800080911F0340E0662361F040E0623011F458
:1034900040911F0380E060E004C060911F0340E0A2
:1034A00080E00E94D219F801848190E0019663E0E7
:1034B00070E00E945C2E84832396E4E00C94F32E4B
:1034C000A3E0B0E0E6E6FAE10C94CC2E082FE62E5D
:1034D000F42EC22E90918E0390FF4AC0E92FE695FC
:1034E000AE2FB0E0AF55BE4F8C91809362039E7FAC
:1034F000923009F041C09E012F5F3F4F802F0E9404
:103500005F184B8169818A810E94D21900938F03D1
:10351000E0929003F0929103CC2009F48AC02091AC
:103520008E036091920370919303302FA7018091D5
:103530009403909195030E94AE1880911B0380FF25
:1035400017C0809191031F928F93809190031F92D7
:103550008F9380918F031F928F9381E193E09F93CC
:103560008F930E94AD070FB6F894DEBF0FBECDBF9C
:103570002396EFE00C94E82E823019F4F09091033A
:10358000C5CF863019F400918F03C0CF8930D9F3AD
:10359000893109F0BBCFE9518E2F8170782E8E2FA3
:1035A00080958170D82EE695F0E0E25EF84F149198
:1035B000612C96E3A92E93E0B92E60910D01661659
:1035C00018F00E94AF19A2CF619EC001112470E0D3
:1035D0000E94482E502E71102AC0560E862C912C17
:1035E00080911B0380FF11C01F921F931F92DF92D7
:1035F0001F925F921F926F92BF92AF920E94AD078F
:103600000FB6F894DEBF0FBECDBF20910B01820E26
:10361000911C9401220F331F280D391D2A563C4F4F
:103620004F2D6E2D852D0E945F186394C6CF561ABC
:10363000D5CF80911B0380FF9BCF1F92FF921F92DB
:10364000EF921F920F938AEE92E089CFEEE8F3E0BB
:103650009181282F4381628180E1890F0E94601A45
:10366000089581E00E94261B0895EEE8F3E0918121
:10367000282F4381628180EF890F0E94601A08958C
:1036800081E00E94351B0895EEE8F3E0628120E1BD
:10369000620F08F46FEF282F438181810E94601A26
:1036A000089581E00E94441B0895EEE8F3E06281F2
:1036B00020E1621B08F460E0282F438181810E9491
:1036C000601A089581E00E94551B0895EEE8F3E02A
:1036D000438120E1420F08F44FEF282F628181815E
:1036E0000E94601A089581E00E94661B0895EEE82A
:1036F000F3E0438120E1421B08F440E0282F62817F
:1037000081810E94601A089581E00E94771B0895CC
:1037100020E00E94601A0895EF92FF921F93CF93CA
:10372000DF93EC0110E0EE24EA94F12C60910D019E
:10373000161770F00E94AF199A818C8190FF27C0F4
:103740008F5F8C83DF91CF911F91FF90EF90089551
:1037500020910B01422F410F5527551FCA019A0195
:10376000220F331F280F391F2A563C4F70E0C70124
:103770000E945C2E962F8C81409191036091900362
:10378000199F800D11240E945F181F5FCFCF8150B9
:10379000D8CFB0E0A0E0EFECFBE10C94D12EFC011F
:1037A00082810FEF80FF01E010E04BE0A42E8091BA
:1037B0000D01181798F00E94AF1980912103013074
:1037C00009F04FC0811102C080910D01815080939A
:1037D0002103CDB7DEB7EAE00C94ED2EC0910B01CA
:1037E000C12ED12CCC0DDD2DD11DCE01880F991FFE
:1037F000C80FD91FCA56DC4F198218821A8234E0CA
:10380000E32EF12CB12C809121038B0D8C301CF117
:103810006A2D0E943A2E892F082E000C990BC8168B
:10382000D90691F4809191038E9DA0018F9D500D3A
:10383000112455954795559547959E0160919003A4
:1038400080918F030E945F18B00EF1E0EF1AF1082B
:10385000D1F61F5FACCF87FFDFCF90910D01890FAD
:10386000DBCF90E0019660910D0170E00E945C2E2C
:10387000AECF0F931F93CF93DF9380910B01909165
:103880000C0123E0829FF0011124EA56FC4F8917B6
:1038900040F1C0E0D3E060910D01C61740F10E94F5
:1038A000AF192091070180912003820F809320039C
:1038B00090910801920F90930801191654F4082E64
:1038C000000C990B40910D014150550B8417950741
:1038D0001CF0219520930701DF91CF911F910F914B
:1038E00008951182108212828F5F3396D0CF0C2FF1
:1038F00010E070E0C8010E945C2E20910B01820F45
:10390000482F50E020912003022E000C330B0217A9
:103910001307BCF020910801022E000C330B201776
:1039200031077CF08D9F900111242A563C4F409125
:1039300091036091900380918F030E945F18CF5F85
:10394000AACFFA01EE0FFF1FE40FF51FEA56FC4F56
:10395000118210821282F3CFB0E0A0E0E2EBFCE132
:103960000C94CF2EEC014C81042F10E09801D8016B
:103970000E94A02E9B01AC010E94B62E4B015C015F
:10398000E0E2F0E0E01BF10BA5E5B0E0AC019B014B
:103990000E94B62E6B017C019F01DF010E94982ED0
:1039A0009B01AC010E94C12E9B01AC01280D391D69
:1039B0004A1D5B1DC701B6010E94702EF22E822F98
:1039C00090E039E23F1520F143E0249F900111245B
:1039D00035952795122F109500E085E5E82EEF1814
:1039E00080910D01081718F10E94AF199C8181E0A8
:1039F000992319F0903219F48FEF8093060180918A
:103A00000601890F8C83CDB7DEB7ECE00C94EB2E6A
:103A100025E530E0B901681B790B9B01220F331FAC
:103A2000260F371F37FFD4CF2F5F3F4FD1CF8E2DBB
:103A300001FD8F2D20910B01622F600F7727771FDB
:103A40009B01220F331F260F371F2A563C4F412F51
:103A5000609190030E945F180F5FC2CF0F931F9376
:103A6000CF93DF93EC0110E000E090910D019017EF
:103A7000110609F06CF40E94AF198C8190E0019658
:103A8000817099278C83DF91CF911F910F910895B9
:103A900020910B01A801420F511D9A01220F331FE3
:103AA000240F351F2A563C4F4C8160919003809122
:103AB0008F0396959017110651F04CF0442349F06E
:103AC000409191030E945F180F5F1F4FCECF442398
:103AD000B9F340E0F7CFB0E0A0E0E1E7FDE10C94FE
:103AE000CB2EFC016280448081E08483EEE1F6E02D
:103AF0007490EDE9F6E0E491C0919103C695C15848
:103B0000D0E0CC0FDD1FCD2FDD27812C75E0972E67
:103B1000AA24AA94B12C55245A94E719EE2EF12C1C
:103B200080910D01881638F00E94AF19CDB7DEB72D
:103B3000E0E10C94E72EC82CD12C82E0861568F0C9
:103B40009C9CF0019D9CF00D1124EE5DFC4F80913A
:103B50008F038083809190038183411023C09C9CBC
:103B6000F0019D9CF00D1124EE5DFC4F138212823A
:103B700020910B01C601820F911D9C01220F331F62
:103B8000280F391F2A563C4F9C9CF0019D9CF00D3C
:103B90001124EE5DFC4F4281618180810E945F189B
:103BA0008394BECF9C9C80019D9C100D11240E5DC2
:103BB0001C4FF80183818823F1F081508383859D18
:103BC000C0011124648170E00E94482EFB01FF2790
:103BD000E25EF94F8491E82FE719E59DC0011124B9
:103BE000B7010E94482E80919103689FB001112473
:103BF000F8017283BDCF0E94822FB5010E945C2E16
:103C00008C179D070CF0B4CFF2E0F61598F40E94E3
:103C1000822FB5010E945C2EF80180830E94822FC2
:103C2000209190032695622F70E00E945C2E280F51
:103C3000F80121839C9CF0019D9CF00D1124EE5D08
:103C4000FC4F128280919103893C58F088EC9C9C37
:103C5000F0019D9CF00D1124EE5DFC4F8483838365
:103C600087CF8431A0F784E1F2CF60918E0366950F
:103C700070E04BE050E08EE091E00E94922F892BA3
:103C800019F481E0809363030E94872690935A037E
:103C90008093590380911B0380FF08C081ED92E05F
:103CA0009F938F930E94AD070F900F9008951092ED
:103CB000630380911B0380FF08C088EB92E09F9311
:103CC0008F930E94AD070F900F90089590918E03EF
:103CD00090FF47C09170811145C0926090938E0310
:103CE00020918E03662309F444C030918F034091E4
:103CF000900350919103609192037091930380918E
:103D00009403909195030E94AE1880911B0380FF4D
:103D10000FC080918E0386951F928F9384E994E063
:103D20009F938F930E94AD070F900F900F900F906D
:103D300060918E03669570E04BE050E08EE091E07C
:103D40000E94922F892BF9F00E94571E81E08093E8
:103D50005C03409191036091900380918F030E94D6
:103D6000881B08958B3210F09465B8CF880F982B7C
:103D7000B5CF80911B0380FFDBCF26951F922F9339
:103D800086E794E0CDCF0E94351EE0CF682F90915A
:103D90008E03969581E0890F8B3208F081E00E94B6
:103DA000661E089581E00E94C61E0895682F9091B6
:103DB0008E0396958FEF890F09F48AE20E94661EA2
:103DC000089581E00E94D61E089561E00E94661E5B
:103DD000089580918E03816080938E0380911B03F0
:103DE00080FF0DC01F9281E08F9388E094E09F9345
:103DF0008F930E94AD070F900F900F900F908091BE
:103E00008E0386950E94E51E089560E00E94661E5E
:103E1000089580916103811170C080911B0380FF20
:103E200014C087E395E09F938F930E94AD07809124
:103E30001B030F900F9080FF08C081E295E09F93D5
:103E40008F930E94AD070F900F900E947112811105
:103E500010C080911B0380FF08C089EF94E09F93FE
:103E60008F930E94AD070F900F900E940F130E9436
:103E7000D4180E947C1820938E0330938F034093B4
:103E800090035093910360939203709393038093F4
:103E90009403909395032E7F01F580911B0380FF7F
:103EA00008C080EB94E09F938F930E94AD070F9022
:103EB0000F900E94D4180E947C1820938E03309398
:103EC0008F034093900350939103609392037093F8
:103ED000930380939403909395030E946D180E941E
:103EE000E8181092630380918E0380FF03C08695CB
:103EF0000E94051F81E080936103089580918E03E5
:103F0000816080938E0380911B0380FF0DC01F9200
:103F100081E08F938FEC93E09F938F930E94AD0786
:103F20000F900F900F900F9080918E0386950E94B6
:103F3000051F08951092600380915F0381110E9414
:103F40007E1F0E94351E089520918E032E7F2093A0
:103F50008E0330918F0340919003509191036091B3
:103F600092037091930380919403909195030E9422
:103F7000AE1880911B0380FF0FC080918E0381706B
:103F80001F928F9387E993E09F938F930E94AD07D1
:103F90000F900F900F900F900E94571E0E94AF1924
:103FA000089580911B0380FF10C080918E0380953F
:103FB00081701F928F938FE394E09F938F930E9461
:103FC000AD070F900F900F900F9080918E0380FFA0
:103FD00003C00E94A41F08950E94E91E08958091C5
:103FE0008E038E7F80938E0380911B0380FF0CC015
:103FF0001F921F928DE593E09F938F930E94AD07D0
:104000000F900F900F900F900E94571E0E94AF19B3
:1040100008950E94571E8091600381110AC081E0BB
:104020008093600380918E03817080935F030E9470
:10403000EF1F08950F931F93CF93DF938091630336
:104040008823B9F180916203E0918E03E695E81B25
:10405000E0935B03823091F5F0E0E65EF94FE49186
:10406000CE2FD0E003E01AE180915C03882361F059
:1040700010925C030E94872690935A038093590301
:1040800010925E0310925D030E948726E09159030F
:10409000F0915A038E1B9F0B8F3F9F4750F4EC0FFC
:1040A000FD1FF0935A03E093590389E593E0F8016B
:1040B0000995DF91CF911F910F910895863049F4B2
:1040C000F0E0E95EF94FE491CE2FD0E007E11AE18C
:1040D000CBCF893051F4E695F0E0EC5EF94FE491F6
:1040E000CE2FD0E00CE81BE1BFCF8F3051F4E69526
:1040F000F0E0EF5EF94FE491CE2FD0E009EC1BE148
:10410000B3CF853149F4F0E0E25FF94FE491CE2F6F
:10411000D0E009E31CE1A8CFC8E2D0E00CEA1CE142
:10412000883109F4A1CF833239F4ECE0F6E0C5918F
:10413000D49107E21AE198CFC4EFD1E00EE21DE17D
:10414000843209F491CFC0EDD7E00BE518E1853258
:1041500009F08ACF8E2F63E00E942E2EE92FF0E027
:10416000E75FF94FE491CE2FD0E00BE61DE17CCF65
:10417000FA01811101C0FB0109950895CF93DF93E6
:10418000C82FD62F0E9463198C1748F00E9463191C
:104190008D1728F40E94D21EDF91CF9108958C2FA5
:1041A0000E94E51EF9CF1F93CF93DF93EC01FB0133
:1041B0001581111110C00E945D118272FE01E05242
:1041C000F847E531F10508F05EC0E65CFF4C0C9461
:1041D000922E0E94D11F812FDF91CF911F910895C0
:1041E00041EE5EE162ED7EE10E94B820F4CF42ED47
:1041F0005EE161EE7EE1F8CF40E45BE161E37BE10B
:10420000F3CF41E35BE160E47BE1EECF42E65BE1CB
:1042100061E57BE1E9CF41E55BE162E67BE1E4CF8B
:1042200044E85BE163E77BE1DFCF43E75BE164E820
:104230007BE1DACF47EA59E167E879E1D5CF47E892
:1042400059E167EA79E1D0CF81E00E94E51EC3CF52
:1042500065E082E00E94BE20BECF68E086E0FACF33
:104260006EE089E0F7CF64E18FE0F4CF67E185E1AC
:10427000F1CF88E1EACF62E289E1ECCF83E2E5CFDA
:104280006AE285E2E7CF11E0A6CF539A4BB1477FB0
:104290005BB15860EFB7F8949B01220F331F260FD4
:1042A000371F280F391F2817390741F4EFBF8FE553
:1042B00094E00197F1F700C000000895DC016D91D2
:1042C000CD0178E05BB9000000C067FF4BB9660F15
:1042D000000000C000C000C04BB900C07A9591F743
:1042E000E2CFCF93DF93EC01FB018581882309F4B2
:1042F000D2C09E0130572332310508F0B2C00E946F
:10430000861290937F0380937E03FE01E150F04775
:10431000E232F10520F4E15BFF4C0C94922E809187
:104320007E03816080937E0393C080917F038860C9
:1043300080937F038DC080917E038260F3CF809154
:104340007E038460EFCF80917E038860EBCF809105
:104350007F038160EDCF80917F038260E9CF809100
:104360007E038061DFCF80917E038062DBCF80910E
:104370007E038064D7CF0E94CA0C80917E03806840
:10438000D1CF80917E038C60CDCF80917F038360FD
:10439000CFCF80917E038E7FC5CF80917F03877FB3
:1043A000C7CF80917E038D7FBDCF80917E038B7FB1
:1043B000B9CF80917E03877FB5CF80917F038E7FB9
:1043C000B7CF80917F038D7FB3CF80917E038F7EA7
:1043D000A9CF80917E038F7DA5CF80917E038F7BB7
:1043E000A1CF0E94CA0C80917E038F779BCF8091D2
:1043F0007E03837F97CF80917F038C7F99CF8091BD
:104400007E0382FB992790F921E0922790FB82F9A5
:1044100090FB83F987CF80917F03982F90959170BF
:104420008E7F892B90FB81F983CF90917E03892F1A
:104430008F7B96FF806476CF0E94CA0C90917E039A
:10444000892F97FB87F980586DCF81E00E94121366
:1044500080917E0390917F030E948B120E94CA0C70
:1044600080E0DF91CF91089580E0F0CF90917E03BE
:10447000892F8F7E94FF806155CF90917E03892F85
:104480008E7F90FF81604ECF90917F03892F877F31
:1044900093FF88604DCF81E0E4CFCF93C82F1F9268
:1044A0008F9389E298E09F938F930E94AD0781E0FC
:1044B00090E002C0880F991FCA95E2F70E94170D7D
:1044C0000E94CA0C0F900F900F900F90CF910895FB
:1044D000EF92FF920F931F93CF93DF938B3109F4E9
:1044E00010C108F0B0C08B3009F4CCC008F082C015
:1044F000863009F4DAC048F4853009F4B2C082ECA1
:104500009BE00E94140780E0E0C0873009F4E2C01D
:104510008830A9F70E9481121F928F9385EA9BE051
:104520009F938F930E94AD070E947C1283FB992773
:1045300090F91F929F9382FB992790F91F929F9366
:1045400081FB992790F91F929F93982F91701F924A
:104550009F931F928F938CE59BE09F938F930E9474
:10456000AD070E94861293FB222720F91F922F93FA
:1045700087FB222720F91F922F9386FB222720F901
:104580001F922F9385FB222720F91F922F9384FBE4
:10459000222720F91F922F9383FB222720F91F92B5
:1045A0002F9382FB222720F91F922F9391FB222722
:1045B00020F91F922F93292F21701F922F9381FB97
:1045C000222720F91F922F93282F21701F922F93BB
:1045D0009F938F938DE59AE09F938F930E94AD07F1
:1045E0008DB79EB78A960FB6F8949EBF0FBE8DBF4B
:1045F00081E06BC0803109F49CC080F48E3009F0FA
:104600007ECF90911B03892F8B7F92FF84608093D4
:104610001B0382FF8BC08DEE9BE07FC0863109F4C7
:1046200098C0893109F06BCF8CEC91E09F938F9308
:1046300089E998E09F938F930E94AD070F900F90A8
:104640000F900F90D5CF8A3249F190F4873211F153
:1046500028F48E3108F453CF8D511DC0893209F0F2
:104660004ECF80E39CE00E9414070E944608C0CF12
:10467000833468F48A3308F091C0853359F0883365
:1046800009F03DCF87EB98E00E941407B1CF833447
:1046900009F035CF80E00E944D22AACF80E59CE052
:1046A0000E9414070E940F13A3CF80911B03807FE9
:1046B00080931B038CE998E00E9414078CE49CE033
:1046C0000E94140781E080936403CDB7DEB7E6E073
:1046D0000C94F12E90911B03892F8E7F90FF8160A7
:1046E00080931B0380FF03C084E29CE0CDCF87E171
:1046F0009CE00E94140780911B03817F80931B0321
:1047000077CF90911B03892F8D7F91FF82608093DB
:104710001B0381FF08C08AE09CE00E94140780917F
:104720001B038160EBCF8CEF9BE0AECF8DED9BE068
:10473000ABCF90911B03892F877F93FF8860809375
:104740001B0383FF03C081ED9BE0E7CF84EC9BE07C
:104750009BCF0E949326162F072FF82EE92ED0917B
:104760007D03C09121010E94EF24EF92FF920F93ED
:104770001F931F92DF931F92CF931F928F938EE20E
:1047800098E09F938F930E94AD078DB79EB70C96CC
:104790000FB6F8949EBF0FBE8DBF2ACF89537BCF33
:1047A00080E008950E94D0230895CF93C82F809170
:1047B0006403882331F0813099F01092640380E023
:1047C0000DC00E945D118232D1F78C2F0E94D02340
:1047D000811119C08C2F0E9468228170CF91089599
:1047E0000E945D11823289F38C2F0E94D2238111A5
:1047F00019C0C431C9F050F4CB3061F083E298E0C5
:104800000E94140713C081E090E0E7CFC93261F045
:10481000C833A1F78CE998E00E94140785E298E07C
:104820000E94140781E0D9CF1092640380E0D5CFB5
:10483000CF93DF93EB0186319C4711F50E945D1108
:104840009D81992399F08A7A91E009F490E0909300
:104850006503811109C089E20E9435110E94B611D9
:1048600080E0DF91CF91089585E3F6CF80916503D5
:10487000811104C089E20E943D11F0CF85E3FBCF96
:1048800081E0EFCF0F931F93CF93DF93C42FD22FED
:10489000FC0185818823C9F0409368030E94872624
:1048A000909367038093660380E28C0F883040F416
:1048B000C77081E001C0880FCA95EAF70E947F0A9D
:1048C000DF91CF911F910F910895109168031413F8
:1048D00032C080916603909167030E949F26883CB6
:1048E000910548F5C0E2CD0F1D17B9F080E2810FA8
:1048F000883040F4177081E001C0880F1A95EAF7FC
:104900000E94860AC83048F481E09D2F977001C04C
:10491000880F9A95EAF70E947F0A802F0E94760AF4
:10492000C83070F6D77081E001C0880FDA95EAF7D9
:104930000E94860AC5CF80E28C0F883008F6C770C7
:1049400081E001C0880FCA95EAF7F2CF0F93DB012F
:1049500088519C4787309105A0F5FC01EF58FF4C2A
:104960000C94922E06E221EE41EE6AE17CE7CD0145
:104970000E94422480E00F91089507E225EE45EE63
:104980006BE17CE7F4CF06E221EE40EE68E17CE7E4
:10499000EECF07E225EE44EE69E17CE7E8CF06E2E0
:1049A00021EE42EE6CE17CE7E2CF07E225EE46EE37
:1049B0006DE17CE7DCCF08E221E045EE6EE17CE7CB
:1049C000D6CF15968C91882319F010926803D3CF17
:1049D00081E0D1CF90936E0380936D030895E091B1
:1049E0006D03F0916E03309729F00190F081E02D76
:1049F0000995089580E008950E94EF240895EF92AC
:104A0000FF920F931F93CF93DF938C01E0916D037F
:104A1000F0916E03309791F10280F381E02D0995BA
:104A200080911B0382FF2AC080FF04C089E69CE0BE
:104A30000E941407D0E0C0E083E6E82E8CE0F82E58
:104A400080911B0380FF0EC0F801EC0FFD1F8081D9
:104A50001F928F93FF92EF920E94AD070F900F90DD
:104A60000F900F902196C830D10551F780911B030C
:104A700080FF04C081E69CE00E941407CDB7DEB73A
:104A8000E6E00C94F12EA3E0B0E0E9E4F5E20C944A
:104A9000D92E20916B0330916C0328173907A1F0B0
:104AA00090936C0380936B03E0916D03F0916E0320
:104AB000309751F023E029839B838A830680F78116
:104AC000E02DCE01019609952396E2E00C94F52E97
:104AD000A3E0B0E0EEE6F5E20C94D92E2091690354
:104AE00030916A0328173907A1F090936A038093E5
:104AF0006903E0916D03F0916E03309751F024E06B
:104B000029839B838A830680F781E02DCE0101965D
:104B100009952396E2E00C94F52E9C012E5F3F4F01
:104B2000AC01485F5F4F80E02417350709F4089512
:104B3000F90191919F019923B9F38F5FF5CF662316
:104B400049F0FC01329608962191261729F0E817C2
:104B5000F907D1F780E0089581E008959C01FC01F8
:104B600032969FEF80E04191461751F09F3F19F434
:104B7000411101C0982F8F5F8630A9F79F3F09F43C
:104B80000895290F311D97FD3A95F9016283089523
:104B9000FC01329608962191261303C0DF0111977C
:104BA0001C92E817F907B9F708950E94AE250895F9
:104BB0000E94C8250895029626E0FC0111922A95CC
:104BC000E9F7089508950E94E2250895811106C02D
:104BD00081E080936F030E94E325089582E0F9CF7E
:104BE00083E080936F030E94E32508950E94E625E9
:104BF000089581E080936F030E94E32508950E9449
:104C0000F9250895089508950E94032608950895AA
:104C100008950E9402260895CF930E9407260E94BD
:104C20002B170E940826C0E08C2F0E94311681119C
:104C300005C0CF5FC730C1F7CF91089581E0FCCFA9
:104C400085B7806885BF85B7806885BF08951F9246
:104C50001FB61F9211248F939F93AF93BF938091A0
:104C60007003811113C08091B7039091B803A09194
:104C7000B903B091BA034196A11DB11D8093B7034A
:104C80009093B803A093B903B093BA03BF91AF91C7
:104C90009F918F911F901FBE1F9018958091BF0309
:104CA000843031F10E94BF081092700388E190E0D7
:104CB00020E40FB6F894A895809360000FBE20936F
:104CC000600083B7817F846083BF83B7816083BFC7
:104CD0007894889583B78E7F83BF0FB6F894A89594
:104CE00080916000886180936000109260000FBE28
:104CF00008950E94CA0C0E94C608089582E084BDEF
:104D000093E095BD9AEF97BD80936E0008952FB7FD
:104D1000F8948091B7039091B803A091B903B09132
:104D2000BA032FBF08952FB7F8946091B70370911D
:104D3000B8038091B9039091BA032FBF08959C01E5
:104D40004FB7F8948091B7039091B803A091B9033D
:104D5000B091BA034FBF821B930B089578941F92B2
:104D60001FB61F9211248F939F93AF93BF9380918F
:104D7000B7039091B803A091B903B091BA0301961B
:104D8000A11DB11D8093B7039093B803A093B903FD
:104D9000B093BA03BF91AF919F918F911F901FBEA7
:104DA0001F90189587E797E7909301088093000874
:104DB00088E19AE00FB6F894A895809360000FBE42
:104DC00090936000FFCF88E19AE00FB6F894A89521
:104DD000809360000FBE90936000FFCF80917C03B2
:104DE000089508959B01BA019091BF039430E9F4AE
:104DF0008F708093E9009FEF8091E800915085FDCE
:104E000006C085ED8A95F1F700009111F5CF8091EC
:104E1000E80085FF0AC050E040E0C9010E94A829CF
:104E20008091E8008E778093E800089543E050E099
:104E3000BC0182E00E94F2260895CF93DF93EC013B
:104E400048E050E0BC0181E00E94F22688E0FE01CB
:104E5000A4E7B3E001900D928A95E1F7DF91CF913D
:104E6000089581EA9CE00E9414078091BE0381119D
:104E700009C00E94382B0E94952B8091E20084602B
:104E80008093E20008958DE99CE00E94140710923F
:104E9000BE03089589E99CE00E9414070E94F92549
:104EA000089585E99CE00E9414076091BB0381E0AE
:104EB000611101C080E00E94F025089581E99CE025
:104EC0000E9414079091BF0381E0943009F080E0C4
:104ED0006091BB030E94F6250895209172032F5F15
:104EE000822F62E30E942E2E992319F020937203E1
:104EF000089510927203809173038823F1F08091DA
:104F0000BF038430C1F49091E9009F702091EC00C0
:104F1000822F817020FD80E8892B93E09093E90037
:104F20009091EB0090FF04C09091EE0097FD08C0B7
:104F30008F708093E9001092730308951092F1002E
:104F40009091E80095FDFACF9091E80090FFF0CFA6
:104F50009091E8009E779093E800EACF42E061EC00
:104F600081E00E94B42A42E261EC82E00E94B42A0D
:104F700042E261EC83E00E94B42A9091BF0381E099
:104F8000943009F080E06091BB030E94E62508950B
:104F90008091C103833009F461C030F48130D1F1D4
:104FA000823009F49EC008958A3009F48AC08B309B
:104FB00009F46FC0893009F050C08091C00381327C
:104FC00009F04BC08091C4039091C503029708F08B
:104FD00044C08091E800877F8093E8008091E800DA
:104FE00082FF37C09091F3008091F200029731F474
:104FF0008091F100813011F0863021F48091F10030
:1050000080937C038091E8008B778093E8000E9476
:10501000E82A23C08091C003813AF9F48091E80026
:10502000877F8093E8008091C4039091C503892B0A
:1050300061F468E084E793E070E00E94F7298091D2
:10504000E8008B778093E800089560E090E080E0CE
:10505000F3CF8091BF038111C1CF08958091C00328
:10506000813AD9F78091C4039091C503892BA9F7A0
:105070008091E800877F8093E8008091E80080FFBE
:10508000FCCF809121018093F1008091E8008E7720
:10509000BCCF8091C003813201F78091C40390910D
:1050A000C503892BD1F68091E800877F8093E800C3
:1050B0000E94E82A8091C203809321010E94CA0CB9
:1050C00008958091C003813241F68091E800877F86
:1050D0008093E8000E94E82A8091C30380937D03B7
:1050E00008958091C003813A09F0B7CF8091E8001C
:1050F000877F8093E8008091E80080FFFCCF80915B
:105100007D03C1CF9FB7F894109273039FBF909116
:10511000BF03943009F048C02091E9002F7030910E
:10512000EC00932F917030FD90E8922B23E02093B8
:10513000E9002091EB0020FF34C02091EE0027FF12
:1051400030C020917103222321F02091E80025FF37
:1051500028C01092710326E03091E80035FF14C09A
:105160008093F1008091E80085FD27C08091E800E0
:1051700080FFFCCF8091E8008E778093E8009F70DD
:105180009093E90080E008953091BF03343049F4F2
:105190003091EB0035FD05C0215041F481E0809352
:1051A00071039F709093E9008FEF0895EFE9FFE09E
:1051B0003197F1F700C00000CFCF8FB7F89421E00E
:1051C000209373038FBFDBCF84B7877F84BF0FB675
:1051D000F894A89580916000886180936000109297
:1051E00060000FBE80E890E00FB6F89480936100F5
:1051F000909361000FBE0E94FF2508950E94382BF6
:105200000E94952BE2EEF0E08081846080837894A8
:105210000E94132E089589E191E00E94EA240895E6
:105220008091BF03853071F480911B0380FF04C01F
:105230008BE79CE00E9414078091BF03853019F032
:105240000E94792608950E944E268091BD038823EE
:1052500099F30E940C26882379F30E9492290E94D8
:10526000CA0CEACF08959A014091C6035091C70332
:105270000E943B290895492F55274330510521F1BC
:1052800068F44130510509F443C04230510509F436
:1052900044C090E080E050E040E026C0413251053B
:1052A00051F142325105A9F76330710590F7FB01C6
:1052B000EE0FFF1FEC57FD4F408151816F577D4F1F
:1052C000FB01808190E010C099278130910581F029
:1052D000009729F00297E9F6E5EAFCE002C0E9EC64
:1052E000FCE0849190E0AF01F9015183408308957F
:1052F000EBEBFCE0F6CF6330710558F6660F771FD5
:10530000FB01E657FD4F4081518189E090E0ECCFF1
:1053100082E190E048E25DE0E7CF8BE590E04DEC84
:105320005CE0E2CF80E189BD82E189BD09B400FE85
:10533000FDCF8091D8008F7D8093D8008091E000D0
:1053400082608093E0008091E00081FDFCCF0895B1
:10535000AF92BF92CF92DF92FF920F931F93CF93A2
:10536000DF936C01EB018A010E94072BF82E81115B
:1053700023C00115110539F0F80180819181C81B06
:10538000D90BC80ED91EB12CA12C2097A9F0809161
:10539000E80085FD22C08091E8008E778093E800C8
:1053A00001151105A1F0F80180819181A80EB91EA7
:1053B000B182A08285E0F82E8F2DDF91CF911F91D1
:1053C0000F91FF90DF90CF90BF90AF9008950E9413
:1053D000072B8823D1F2F82EEFCFF60181916F01D0
:1053E0008093F1002197FFEFAF1ABF0ACECFFC01E7
:1053F0008091C6039091C70386179707A0F06115A7
:10540000710529F49091E8009E779093E80090E070
:105410006115710551F4911108C08091E80082FF77
:1054200034C080E00895BC01F2CF8091BF0388238F
:10543000C1F18530C1F18091E80083FD30C08091D9
:10544000E80082FDEACF8091E80080FFE1CF809103
:10545000F3002091F200382F6115710519F0283002
:10546000310558F091E02830310509F090E02091A5
:10547000E8002E772093E800CBCF81918093F10054
:10548000615071092F5F3F4FE7CF8091BF038823A1
:1054900041F0853041F08091E80083FFBECF81E08C
:1054A000089582E0089583E00895FC018091C60389
:1054B0009091C70386179707A0F06115710529F42D
:1054C0008091E8008E778093E80090E06115710587
:1054D00051F4911108C08091E80082FF35C080E04E
:1054E0000895BC01F2CF8091BF038823C9F18530B4
:1054F000C9F18091E80083FD31C08091E80082FD10
:10550000EACF8091E80080FFE1CF8091F300209105
:10551000F200382F6115710519F02830310558F067
:1055200091E02830310509F090E08091E8008E7715
:105530008093E800CBCF84918093F1003196615045
:1055400071092F5F3F4FE6CF8091BF03882341F061
:10555000853041F08091E80083FFBDCF81E0089560
:1055600082E0089583E00895982F973028F08F7097
:105570008093E90081E008959093E900242F762F2D
:1055800050E0981731F07091EC002091ED005091AF
:10559000F00021FD02C09F5FE8CF3091EB003E7F1D
:1055A0003093EB003091ED003D7F3093ED00309172
:1055B000EB0031603093EB007093EC002093ED0032
:1055C0005093F0002091EE0027FDE5CF80E0089594
:1055D0008091C00387FF13C08091E80082FF06C05E
:1055E0008091E8008B778093E80004C08091BF032E
:1055F0008111F2CF08958091BF038823D9F3809160
:10560000E80080FFF8CF8091E8008E77ECCF209102
:10561000E4003091E50095E6A9012091EC00822F8D
:10562000817020FF06C08091E80080FF06C080E006
:1056300008952091E80022FD1AC08091BF038823BD
:1056400089F0853089F08091EB0085FD0FC02091B5
:10565000E4003091E50042175307F9F29150E1F66A
:1056600084E0089582E0089583E0089581E008953C
:105670000E94A72B0E94AF2BE0EEF0E080818160BA
:105680008083E8EDF0E080818F77808319BCA7EDFF
:10569000B0E08C918E7F8C9380818F7E808310927E
:1056A000BE0308950F931F93CF93DF930E94A72B00
:1056B0000E94AF2BC8EDD0E088818F7788838881E6
:1056C0008068888388818F7D888319BC1092BF038E
:1056D0001092BB031092BD031092BC0300EE10E0C9
:1056E000F80180818B7F808388818160888342E09C
:1056F00060E080E00E94B42AE1EEF0E080818E7FDD
:105700008083E2EEF0E08081816080838081886028
:105710008083F80180818E7F808388818061888387
:10572000DF91CF911F910F910895E8EDF0E0808116
:105730008F7E8083E7EDF0E080818160808384E06C
:1057400082BF81E08093BE030E94522B0895E8ED52
:10575000F0E080818E7F80831092E20008951092A5
:10576000DA001092E10008951F920F920FB60F9287
:1057700011242F933F934F935F936F937F938F9356
:105780009F93AF93BF93EF93FF938091E10082FFCC
:105790000BC08091E20082FF07C08091E1008B7F07
:1057A0008093E1000E946D278091DA0080FF19C08C
:1057B0008091D80080FF15C08091DA008E7F8093A1
:1057C000DA008091D90080FF96C080E189BD82E136
:1057D00089BD09B400FEFDCF81E08093BF030E9424
:1057E00031278091E10080FF19C08091E20080FFA5
:1057F00015C08091E2008E7F8093E2008091E200EC
:1058000080618093E2008091D80080628093D8000C
:1058100019BC85E08093BF030E9451278091E1006D
:1058200084FF2BC08091E20084FF27C080E189BD06
:1058300082E189BD89B5982F917080FFFBCF80915F
:10584000D8008F7D8093D8008091E1008F7E809377
:10585000E1008091E2008F7E8093E2008091E2007F
:1058600081608093E2008091BB03882309F449C0E2
:1058700084E08093BF030E945E278091E10083FF54
:1058800029C08091E20083FF25C08091E100877FDD
:105890008093E10082E08093BF031092BB0380916C
:1058A000E1008E7F8093E1008091E2008E7F809303
:1058B000E2008091E20080618093E20042E060E0DB
:1058C00080E00E94B42A8091F00088608093F0000C
:1058D0000E944A27FF91EF91BF91AF919F918F91C5
:1058E0007F916F915F914F913F912F910F900FBEDC
:1058F0000F901F90189519BC1092BF030E94432768
:1059000070CF8091E30087FD93E09093BF03B3CF06
:105910001F920F920FB60F9211242F933F934F9324
:105920005F936F937F938F939F93AF93BF93CF9327
:10593000DF93EF93FF93D091E900DF708091EC004B
:10594000C82FC17080FDC0E81092E9008091F0007E
:10595000877F8093F00078940E94CC2C1092E9000D
:105960008091F00088608093F000CD2BCF70C093C1
:10597000E900FF91EF91DF91CF91BF91AF919F919E
:105980008F917F916F915F914F913F912F910F90E8
:105990000FBE0F901F901895AAE2B0E0E2EDFCE276
:1059A0000C94D82E80EC93E02091F100FC0121931F
:1059B000CF01F3E0883C9F07B9F70E94C827809188
:1059C000E80083FF1EC18091C0039091C1039A300B
:1059D00008F017C1E92FF0E0E858FF4C0C94922E24
:1059E000803899F0823809F00CC18091C4038F701F
:1059F000873008F006C18093E9008091EB0085FBB9
:105A0000882780F91092E90006C08091BC0390912C
:105A1000BD03911182609091E800977F9093E80018
:105A20008093F1001092F1008091E8008E77E5C03C
:105A3000882309F4D3C0823009F0E3C08091C20307
:105A40008111D6C08091C4038F702FEF280F2630AC
:105A500008F0D7C08093E9002091EB0020FFC8C078
:105A6000933031F48091EB0080628093EB00C0C0F2
:105A70009091EB0090619093EB0021E030E001C049
:105A8000220F8A95EAF72093EA001092EA008091AB
:105A9000EB008860EACF8111B4C01091C2031F7778
:105AA0008091E3008078812B8093E3008091E8006F
:105AB000877F8093E8000E94E82A8091E80080FFB9
:105AC000FCCF8091E30080688093E30082E01111B5
:105AD00083E08093BF0395C08058823008F091C066
