:100000000C94DE060C94FB060C94FB060C94FB0689
:100010000C94FB060C94FB060C94FB060C94FB065C
:100020000C94FB060C94FB060C941A2B0C94EE2BF0
:100030000C9491250C94FB060C94FB060C94FB0687
:100040000C94FB060C94FB060C94FB060C94FB062C
:100050000C94FB060C9418260C94FB060C94FB06DF
:100060000C94FB060C94FB060C94FB060C94FB060C
:100070000C94FB060C94FB060C94FB060C94FB06FC
:100080000C94FB060C94FB060C94FB060C94FB06EC
:100090000C94FB060C94FB060C94FB060C94FB06DC
:1000A0000C94FB060C94FB060C94FB062900140030
:1000B0001A000800150017002B00040016000700A6
:1000C00009000A00E0001D001B00060019000500E1
:1000D0001C0018000C00120013002A000B000D0079
:1000E0000E000F00330034001100100036003700FE
:1000F00038002832E20021522C002842E743000059
:1001000001001E021F0220022102220201002D0214
:100110002E022F02300231020100390067002F0049
:1001200030003100230224022502260227024C005F
:100130005000510052004F00350035024A004D007A
:100140004B004E0046002C320100010028002452D2
:100150000100000001001E001F00200021002200FD
:1001600001002D002E002F003000310001000100A1
:100170000100E60039003400230024002500260099
:1001800027004C003A003B003C003D003E003F0091
:100190004000410042004300440045000100245259
:1001A0002A000100010000002778257823782178B3
:1001B0000000207828782678247822780000000033
:1001C000000000000000000000000000AA00AC00D9
:1001D000AE00BC000000007CA900AB00AD00BB007D
:1001E00000000000A8000000000000000000000067
:1001F00001000100000001000100000001000100F9
:1002000001000100010001003A003B003C003D00FC
:100210003E003F00680069006A006B006C006D00E2
:100220004A004D004B004E0001004C0040004100D0
:1002300042004300440045006E006F0070007100F2
:1002400072007300010001000100010001000000C4
:1002500044454255473A2064697361626C65642E77
:100260000A0044454255473A20656E61626C6564F8
:100270002E0A000A0025303258006C65645F7461F4
:10028000736B3A20004F6E6573686F743A20616338
:10029000746976653A2025640A000A0025303862C0
:1002A000003A200025303258000A722F6320303186
:1002B0003233343536370A007267626C69676874A6
:1002C0002074696D65722064697361626C652E0AC1
:1002D000007267626C696768742074696D6572206A
:1002E000656E61626C65642E0A007267626C696794
:1002F00068742073657420687376205B4E4F4545A3
:1003000050524F4D5D3A2025752C25752C25750AC8
:10031000007267626C696768742073657420687323
:1003200076205B454550524F4D5D3A2025752C2572
:10033000752C25750A007267626C69676874207293
:1003400061696E626F7720736574206873763A20F6
:1003500025642C25642C25642C25750A007267629F
:100360006C696768742064697361626C65205B4EB8
:100370004F454550524F4D5D3A207267626C696738
:1003800068745F636F6E6669672E656E61626C6527
:10039000203D2025750A007267626C6967687420C9
:1003A00064697361626C65205B454550524F4D5DD9
:1003B0003A207267626C696768745F636F6E666922
:1003C000672E656E61626C65203D2025750A00729E
:1003D00067626C6967687420656E61626C65205B3A
:1003E0004E4F454550524F4D5D3A207267626C69E1
:1003F0006768745F636F6E6669672E656E61626CB5
:1004000065203D2025750A007267626C6967687413
:1004100020656E61626C65205B454550524F4D5DB5
:100420003A207267626C696768745F636F6E6669B1
:10043000672E656E61626C65203D2025750A00722D
:1004400067626C6967687420746F67676C65205BAE
:10045000454550524F4D5D3A207267626C6967683E
:10046000745F636F6E6669672E656E61626C65208E
:100470003D2025750A007267626C69676874206D9B
:100480006F6465205B4E4F454550524F4D5D3A209D
:1004900025750A007267626C69676874206D6F6405
:1004A00065205B454550524F4D5D3A2025750A0049
:1004B0007267626C696768745F696E6974207267DD
:1004C000626C696768745F636F6E6669672E6D6FD3
:1004D0006465203D20302E20577269746520646564
:1004E0006661756C742076616C75657320746F201D
:1004F000454550524F4D2E0A007267626C6967681D
:10050000745F696E6974206565636F6E66696720E4
:100510006973206E6F7420656E61626C65642E0A6B
:10052000007267626C696768745F696E69742073D2
:1005300074617274210A007267626C696768745F23
:10054000696E69742063616C6C65642E0A00726761
:10055000626C696768745F636F6E6669672E73703B
:10056000656564203D2025640A007267626C6967D6
:1005700068745F636F6E6669672E76616C203D20DC
:1005800025640A007267626C696768745F636F6EE6
:100590006669672E736174203D2025640A007267C6
:1005A000626C696768745F636F6E6669672E6875F1
:1005B00065203D2025640A007267686C696768746D
:1005C0005F636F6E6669672E6D6F6465203D2025E1
:1005D000640A007267626C696768745F636F6E6655
:1005E00069672E656E61626C65203D2025640A0096
:1005F0007267626C696768745F636F6E66696720B3
:10060000454550524F4D3A0A001E0F0500047F3FEA
:100610001F643214643214783C1E1E140A0522230F
:10062000252628292A2C2D2F3032333536383A3BCF
:100630003D3E4042434547494A4C4E505153555721
:10064000595A5C5E6062646668696B6D6F71737540
:1006500077797B7D7F81838587898A8C8E90929440
:1006600096989A9C9E9FA1A3A5A7A8AAACAEAFB14D
:10067000B3B4B6B8B9BBBCBEBFC1C2C3C5C6C7C997
:10068000CACBCCCDCED0D1D2D2D3D4D5D6D7D7D851
:10069000D9D9DADADBDBDBDCDCDCDCDCDDDDDDDDA3
:1006A000DCDCDCDCDCDBDBDBDADAD9D9D8D7D7D6AB
:1006B000D5D4D3D2D2D1D0CECDCCCBCAC9C7C6C562
:1006C000C3C2C1BFBEBCBBB9B8B6B4B3B1AFAEACA8
:1006D000AAA8A7A5A3A19F9E9C9A98969492908E53
:1006E0008C8A89878583817F7D7B79777573716F2C
:1006F0006D6B6968666462605E5C5A595755535108
:10070000504E4C4A4947454342403E3D3B3A3836BD
:10071000353332302F2D2C2A292826252322FFAAD3
:100720007F554000010101010101010101020202A6
:10073000020202020202030303030303030304048D
:100740000404040404050505050506060606060757
:100750000707070708080808090909090A0A0A0B10
:100760000B0B0C0C0C0D0D0D0E0E0E0F0F0F1010B1
:100770001111111212131314141515161617171838
:100780001819191A1A1B1B1C1D1D1E1E1F202021A3
:100790002222232424252626272829292A2B2C2DEA
:1007A0002D2E2F30313232333435363738393A3B0B
:1007B0003C3D3E3F404142434445464748494A4C00
:1007C0004D4E4F50515354555658595A5B5D5E5FCC
:1007D000616264656668696B6C6D6F707273757762
:1007E000787A7B7D7E8082838587888A8C8E8F91C4
:1007F000939596989A9C9EA0A2A3A5A7A9ABADAFEE
:10080000B1B3B5B7BABCBEC0C2C4C6C9CBCDCFD1D7
:10081000D4D6D8DBDDDFE2E4E7E9EBEEF0F3F5F880
:10082000FAFDFF3F00433E20004C25640A000A0900
:100830002D20537461747573202D0A686F73745F73
:100840006B6579626F6172645F6C65647328293AC5
:1008500020253032580A6B6579626F6172645F706F
:10086000726F746F636F6C3A20253032580A6B6573
:1008700079626F6172645F69646C653A2025303219
:10088000580A74696D65725F726561643332282934
:100890003A202530386C580A002573000A092D20AB
:1008A000436F6E736F6C65202D0A4553432F713A69
:1008B00009717569740A000A092D204D6167696321
:1008C000202D0A443A094465627567204D657373AB
:1008D00061676520546F67676C650A583A094D6116
:1008E00074726978204465627567204D6F64652075
:1008F000546F67676C65202D2053686F77206B6598
:10090000797072657373657320696E206D6174729E
:10091000697820677269640A4B3A094B6579626F9E
:1009200061726420446562756720546F67676C6507
:10093000202D2053686F77206B6579707265737313
:10094000207265706F72740A4D3A0944656275676A
:10095000204D6F75736520546F67676C650A563A52
:100960000956657273696F6E0A533A09537461745C
:1009700075730A433A09416374697661746520436B
:100980006F6E736F6C65204D6F64650A46312D463E
:1009900031303A0953776974636820746F204C6171
:1009A00079657220302D392028463130203D204C89
:1009B00030290A302D393A095377697463682074F5
:1009C0006F204C6179657220302D390A47524156AB
:1009D000453A0953776974636820746F204C6179D4
:1009E000657220302028616C7465726E61746529AF
:1009F0000A423A094A756D7020746F20426F6F7415
:100A00006C6F616465720A4553433A094A756D70AB
:100A100020746F20426F6F746C6F61646572202860
:100A2000616C7465726E617465290A453A09507289
:100A3000696E7420454550524F4D2053657474695A
:100A40006E67730A4241434B53504143453A094351
:100A50006C65617220454550524F4D0A006B6579B7
:100A60006D61705F636F6E6669672E7261773A20A1
:100A7000253032580A2E737761705F636F6E74721F
:100A80006F6C5F636170736C6F636B3A2025750ADE
:100A90002E636170736C6F636B5F746F5F636F6EF7
:100AA00074726F6C3A2025750A2E737761705F6CD3
:100AB00063746C5F6C6775693A2025750A2E7377CD
:100AC00061705F7263746C5F726775693A20257537
:100AD0000A2E737761705F6C616C745F6C67756907
:100AE0003A2025750A2E737761705F72616C745FAE
:100AF000726775693A2025750A2E6E6F5F67756992
:100B00003A2025750A2E737761705F67726176658A
:100B10005F6573633A2025750A2E737761705F6293
:100B200061636B736C6173685F6261636B73706147
:100B300063653A2025750A2E6E6B726F3A20257513
:100B40000A2E737761705F6573636170655F6361BF
:100B500070736C6F636B3A2025750A00646562756B
:100B6000675F636F6E6669672E7261773A20253022
:100B700032580A2E656E61626C653A2025750A2E20
:100B80006D61747269783A2025750A2E6B657962F9
:100B90006F6172643A2025750A2E6D6F7573653A20
:100BA0002025750A006565636F6E6669673A0A6499
:100BB000656661756C745F6C617965723A20257544
:100BC0000A003F000A6D6F7573653A206F66660A0A
:100BD000000A6D6F7573653A206F6E0A000A6B65C7
:100BE00079626F6172643A206F66660A000A6B650B
:100BF00079626F6172643A206F6E0A000A6D6174E7
:100C00007269783A206F66660A000A6D61747269CB
:100C1000783A206F6E0A000A64656275673A206F41
:100C200066660A000A64656275673A206F6E0A009C
:100C30000A0A4A756D70696E6720746F20626F6F63
:100C4000746C6F616465722E2E2E2000433E20006E
:100C5000436C656172696E6720454550524F4D0A7D
:100C6000000A002530325820006B6579626F61728E
:100C7000645F7265706F72743A20005B735D005B35
:100C8000575D005B535D005B525D005B445D005B44
:100C9000435D001403720065007600690075006E04
:100CA0000067003400310000000C03670074006925
:100CB000007000730000000403090409025B0003D4
:100CC0000100A0FA0904000001030101000921113B
:100CD0000100012240000705810308000109040109
:100CE0000001030000000921110100012232000768
:100CF000058203200001090402000203000000092C
:100D000021110100012222000705830320000107B1
:100D1000050303200001120100020000000807780B
:100D2000CBDC0100010200010631FF0974A10109B9
:100D300075150026FF0095207508810209761500BB
:100D400026FF00952075089102C005010980A101C8
:100D5000850319012AB700150126B7009501751002
:100D60008100C0050C0901A101850419012AA00216
:100D7000150126A002950175108100C00501090624
:100D8000A101050719E029E715002501950875015E
:100D900081029501750881010507190029FF1500D9
:100DA00026FF00950675088100050819012905959B
:100DB0000575019102950175039101C011241FBEB3
:100DC000CFEFDAE0DEBFCDBF12E0A0E0B1E0E4E4B7
:100DD000FFE502C005900D92A039B107D9F723E0D5
:100DE000A0E9B2E001C01D92AB3BB207E1F70E945F
:100DF00095170C944C2F0C940000FF93EF93E09107
:100E00009002F0919102309709F00995EF91FF91CE
:100E10000895FC018591803011F0EFDFFBCF08953C
:100E2000FF27E0E230E247FF0CC0419597FF09C081
:100E3000EDE26095709580959095611D711D811D05
:100E4000911D27FF02C0219530E350E2AA27660FCB
:100E5000771F881F991FAA1FA41710F0A41B639562
:100E60005A95A9F7AA3008F0A95FA05DAF93F39552
:100E7000611571058105910541F7ED3211F4EF938C
:100E8000F395F21718F43F93F395FBCF8F91B5DFED
:100E9000FA95E1F70895E991F9918591803021F073
:100EA000853219F0AADFF9CF089520E0E894559132
:100EB0005532C1F3503311F4689455915A3348F4C4
:100EC000505390F3220F022E220F220F200D250FD8
:100ED000F4CF0EF4219589919991533619F3533734
:100EE00029F1533559F1BC0188279927E8945C36DC
:100EF00021F48991999168945591543639F446EFCB
:100F00007EF077FF0DC08FEF9FEF0AC055374AE0A4
:100F100039F0583540E121F0523642E009F00895A9
:100F2000FF93EF937DDFEF91FF91B7CFFF93EF93A7
:100F3000FC0181918030B9F360DFFBCFFF93EF9329
:100F400068DFF1CFDF93CF93CDB7DEB72596A3DF70
:100F5000CF91DF9108958530B8F46730A8F446301A
:100F600098F450E096E0699F400D511D1124FA015C
:100F70009AE2899FE00DF11D1124EE0FFF1FE45549
:100F8000FF4F85919491089581E090E008950E942B
:100F9000AB07089581E0089581E008950E94CC0791
:100FA000089508950E94D1070895A5E0B0E0EBED03
:100FB000F7E00C943E2E49835A8330919702898141
:100FC0009A81311119C0662399F0222389F00E9479
:100FD000190E182F682F89819A810E94F50D698159
:100FE0007A81812F0E94F7142596E3E00C945A2E03
:100FF0000E94070E182FF3CF0E94190E69817A8183
:10100000F1CFFC01262F408151816281738184815F
:101010000E94D507089581E00895CF93DF93EC01F6
:1010200060E00E940108BE010E94D207DF91CF91CB
:10103000089508950E94C40C0E9419082FEF84E3BC
:101040009CE0215080409040E1F700C000000895EE
:101050000E941A080E943C2608950E941A080E94C5
:101060004D2608950F931F93CF93DF938C0161E07A
:101070000E940108EC01B8010E94CE07811106C050
:1010800080E0DF91CF911F910F910895B801CE01BB
:101090000E940E248823A1F3B801CE010E94D9201A
:1010A000882371F3B801CE010E948023882341F385
:1010B000B801CE010E943B20882311F3F801828100
:1010C000882369F0C330FCE7DF0781F160F4C130A9
:1010D000ECE7DE0769F1C0F4C115DC4791F0C80107
:1010E0000E94CA07CECFCB35ECE7DE0739F1CC350D
:1010F000FCE7DF0701F1CA35DC4789F70E945D1282
:10110000EECF0E942808BCCF90911103892F8E7FCB
:1011100090FF81608093110380FF05C082E692E01A
:101120000E940907ADCF80E592E0FACF0E946512D8
:101130000E942D08A5CF0E945312D1CF0E946112A8
:10114000CECF0E946E250E94E4080E94711F089570
:101150000E94E8080E94081F0E9473250895829546
:1011600090E09C01220F331F220F331F2C7C95959A
:101170008795959587958373282B30E0C901880F53
:10118000991F8A7A359527952575822B089508959C
:1011900081E008950895CF93DF93D82F0E94C80867
:1011A000C82F882319F08D2F0E94CA088C2FDF9139
:1011B000CF9108950895CF93C82F0E94C7088C2F10
:1011C0000E94CB08CF91089580E00E94DB0808952B
:1011D0000E945C240E94DB080895CF930E945C2447
:1011E000C82F809192028C1789F1C09392020E94BD
:1011F000FD256093930270939402809395029093DF
:1012000096028091110382FF1EC080FF1CC08AE7F6
:1012100092E00E9409078091110380FF14C01F9281
:10122000CF9385E792E09F938F930E94A2078091CE
:1012300011030F900F900F900F9080FF04C083E771
:1012400092E00E9409078C2F0E94DB08CF9108953D
:10125000ABE0B0E0EEE2F9E00C943F2E4F8358870C
:1012600069877A878B8761110E948B111E821D828C
:1012700085E0FE013796DE01119601900D928A9568
:10128000E1F78C819D81892B61F449815A816B81C1
:101290007C818D819E810E94B3102B96E2E00C949C
:1012A0005B2E89819A8189238F3F79F3CE01019644
:1012B0000E940B088111E9CFF0CFFC018081918160
:1012C0000E944B0E0895CF93C82F8823C9F082380F
:1012D000C9F40E945C2481FD13C089E30E9443117C
:1012E0000E94AC112FEF87EE93E021508040904098
:1012F000E1F700C0000089E30E944B110E94AC118D
:10130000CF9108958338A1F40E945C2480FDF8CF2A
:1013100083E50E9443110E94AC112FEF81EE94E00F
:10132000215080409040E1F700C0000083E5E4CF09
:101330008438A1F40E945C2482FDE2CF87E40E94FD
:1013400043110E94AC112FEF81EE94E021508040B8
:101350009040E1F700C0000087E4CECF8CEF8C0F07
:10136000813AB8F48C2F0E943D238111C9CF6C2F94
:1013700080910401909105010E940925882329F09C
:101380008C2F0E944B110E94AC118C2F0E94431194
:10139000B5CF80E28C0F883048F4C77081E001C07F
:1013A000880FCA95EAF70E946E11A8CFEBE5EC0F03
:1013B000E33040F4F0E0E85AFE4F808190E00E9474
:1013C000AD249ECFC85ACB3108F09ACFEC2FF0E075
:1013D000EE0FFF1FEE5DFE4F808191810E94D224AF
:1013E0008FCF882309F44DC0823879F40E945C24A1
:1013F00081FF47C089E30E9443110E94AC1189E339
:101400000E944B110E94AC110895833859F40E9438
:101410005C2480FF36C083E50E9443110E94AC111A
:1014200083E5EECF843859F40E945C2482FF29C002
:1014300087E40E9443110E94AC1187E4E1CF9CEF46
:10144000980F913AE8F290E2980F983050F4877034
:1014500091E001C0990F8A95EAF7892F0E947411D3
:10146000D1CF9BE5980F933028F490E080E00E9464
:10147000AD240895885A8B3120F490E080E00E94DA
:10148000D22408951F93CF93DF93182FEB010E946E
:101490006309209739F4812F0E94F109DF91CF91E0
:1014A0001F9108958FE99FE00197F1F700C00000B8
:1014B0002197EFCF70E060E0893311F460E570E0D0
:1014C0000E94420A0895882321F00E946E110E9412
:1014D000AC110895882321F00E9474110E94AC1170
:1014E0000895B0E0A0E0E7E7FAE00C94382E6C0134
:1014F000D62FC72FFC011281058102950F700E9423
:101500006411E82E8823E9F0E12E1123D1F08C2F0D
:10151000807F803451F080E28D0F8830F8F0011127
:1015200004C08C2F807E8032C9F08091750382FFC9
:1015300015C082E00E940F120E94641191E0E82E13
:10154000E926BC2EB2949FE0B922FBE0FB15B8F16E
:10155000EB2DF0E0E25BF04D0C94F82DE12CF1CF97
:101560000C2F0F70C07F11F00295007F112399F0AE
:10157000002359F080E28D0F883010F0D11107C0A0
:10158000802F0E946E110E94AC118D2F63C0802F9E
:101590000E947E11F8CF8D2F0E94F109002379F06F
:1015A00080E28D0F883010F0D11104C0802F0E948E
:1015B000741103C0802F0E9484110E94AC112B2D46
:1015C0002850330B2430310520F40E945C240E9403
:1015D000DB08EE2089F00E94601180FD0DC0F6014D
:1015E00012820E945A110E94530DC6010E94880C5B
:1015F0000E945A110E94630DCDB7DEB7E9E00C944A
:10160000542E2C2F2F70F22EC07FC03219F0F2947E
:1016100080EFF822DD2381F0D13009F449C0112395
:1016200009F451C0002309F448C0F601858180FF08
:10163000ACCF8F70858341C08091750382FD15C04A
:10164000112359F0FF2029F08F2D0E946E110E9466
:10165000AC1180E00E946309B2CF80E00E94F109E2
:10166000FF2009F4ACCF8F2DA2CF112381F00111FF
:1016700006C00E948E118F290E94630AA0CF0130FC
:10168000C1F70E948E118F290E94951198CF0111E8
:1016900006C00E94A2118F2D0E946A0A90CF0130CD
:1016A00009F48DCF8F2D0E946A0A0E94A21187CF64
:1016B000112329F0063008F082CF8F2DDDCF0530C1
:1016C00008F07DCFE8CF002331F3D93349F4FFEFA1
:1016D00027EE33E0F15020403040E1F700C0000039
:1016E0008D2F0E94F1096BCF8C2F86958695837084
:1016F00069F0813009F063CF8D2F9C2F9370111109
:1017000002C080E090E00E94D22459CF8D2F9C2F00
:101710009370111102C080E090E00E94AD244FCF81
:101720008C2F8370A1F511114ACF4D2F429546950C
:101730004770440F440F2D2F2F7030E0042E02C04D
:10174000220F331F0A94E2F790E080E0D4FF09C033
:101750008FE090E002C0880F991F4A95E2F78095CC
:101760009095C695C695C370822B932BC23049F0D5
:1017700058F4C13019F00E94230D21CF0E941A0D98
:101780001ECF0E942C0D1BCF0E94170D18CF8695DF
:10179000112311F08C2F8170882309F410CF4D2F65
:1017A000429546954770440F440F2D2F2F7030E01F
:1017B000042E02C0220F331F0A94E2F790E080E06B
:1017C000D4FF09C08FE090E002C0880F991F4A95AE
:1017D000E2F780959095C695C695C370822B932BA2
:1017E000C23049F058F4C13019F00E948E0DE7CE96
:1017F0000E94850DE4CE0E94970DE1CE0E943B0D24
:10180000DECECF70112329F08C2F0E94530D8D2F27
:1018100033CF8D2F0E946A0A8C2F0E94630DCFCE8A
:10182000D23F41F160F4D03FB9F0D13F81F01123B4
:1018300009F446C00111A9CE8C2F8F711FC0D33F70
:1018400001F1D43FA1F78091750382FD24C08C2F54
:101850008F71112311F312C0112341F0053008F0EC
:10186000AECE8C2F8F710E94750DA9CE063008F078
:10187000A6CEF7CF8C2F8F711111CFCF0E94530DB1
:101880009ECE112329F08C2F8F710E94470D97CE89
:101890000E94420D94CE112349F0CF718C2F0E94EB
:1018A000530D63E08C2F0E94F11189CE81E00E94DC
:1018B0000F12023008F483CE82E00E940F127FCE16
:1018C000002359F0D93309F00BCF8FEF97EEE3E007
:1018D00081509040E040E1F701CF8C2F8F719DCF78
:1018E0000F931F93CF93DF93EC01688179818A81F5
:1018F0000E94560E8C010E94A00D0E94160DB80188
:10190000CE010E94710ADF91CF911F910F9108952E
:10191000CF93DF93EC018B819C81892B29F0888107
:10192000998189238F3F51F4DF91CF910895CE01A2
:101930000E94700CCE010E940D08F6CFCE010E94CD
:1019400032088111F4CF0E946411882369F38A81DF
:10195000882351F38091750382FFE6CF82E00E94D5
:101960000F12E2CF90E080E00E94AD2490E080E092
:101970000E94D2240E948B110E94AC1108950E94F3
:1019800053110E94B20C08950E947B110E94BF0C5B
:10199000089592959F70963091F058F4925F9F70E1
:1019A000923058F4803F19F030F4883E30F481E0F2
:1019B00008959A5FF4CF843FD1F380E00895883E84
:1019C000B0F3813FD1F7F3CFFC0183819481892B60
:1019D00029F08081918189238F3F11F480E008955F
:1019E000808191810E944B0E0E94C90C0895A5E050
:1019F000B0E0EDEFFCE00C943F2E2596E2E00C9475
:101A00005B2EA6E0B0E0E7E0FDE00C943F2E2696CA
:101A1000E2E00C945B2E08950E940B0D08950E9445
:101A20000C0D9093B3028093B202089508950E9422
:101A30000F0D08952091B2023091B302822B932BA7
:101A40000E940F0D08952091B2023091B3028223BB
:101A500093230E940F0D08952091B2023091B3029A
:101A6000822793270E940F0D08950E940B0D089561
:101A70000E94350D08950E94380D9093B102809315
:101A8000B002089590E080E00E943B0D089521E0AF
:101A900030E0A90102C0440F551F8A95E2F7CA0140
:101AA0000E943B0D089521E030E002C0220F331F59
:101AB0008A95E2F78091B0029091B102822B932B2C
:101AC0000E943B0D089521E030E002C0220F331F39
:101AD0008A95E2F7209530958091B0029091B102FD
:101AE000822393230E943B0D089521E030E002C041
:101AF000220F331F8A95E2F78091B0029091B102D4
:101B0000822793270E943B0D08952091B0023091C7
:101B1000B102822B932B0E943B0D08952091B002BD
:101B20003091B102822393230E943B0D08952091AE
:101B3000B0023091B102822793270E943B0D089595
:101B40000895262F277091E001C0990F2A95EAF792
:101B500023E0769567952A95E1F7660F771F660F64
:101B6000771FFA01E60FF71F50E040E0682F70E0A2
:101B70008191DF0111979B01042E02C036952795B4
:101B80000A94E2F7217021952827292328272C93EE
:101B90004F5F5F4F4430510559F70895A82FA77044
:101BA00023E0969587952A95E1F7880F991F880F6E
:101BB000991FFB01E80FF91F50E040E080E0219100
:101BC00030E00A2E02C0369527950A94E2F721707C
:101BD0003327042E01C0220F0A94EAF7822B4F5FAD
:101BE0005F4F4430510559F70895262F973070F410
:101BF000863060F4682F70E086E0989F600D711D5C
:101C0000112448E952E0822F0E94A10D0895292F46
:101C1000973068F4863058F490E068E972E036E076
:101C2000239F800D911D11240E94CE0D089580E008
:101C30000895B0E0A0E0EFE1FEE00C94382E7C01C6
:101C40000091B0021091B1028091B2029091B30262
:101C5000082B192BCFE0D0E0CC24C394D12CBC2E80
:101C6000C6010C2E02C0880F991F0A94E2F7802348
:101C70009123892B49F4219790F7B12C8B2DCDB767
:101C8000DEB7E9E00C94542EB7018C2F0E940315A7
:101C9000019789F3F3CFCF93DF93EC010E94190EE4
:101CA000BE010E940315DF91CF9108951F93CF933A
:101CB000DF93EB0190919702992339F0CB010E94B9
:101CC0004B0EDF91CF911F910895882369F0CB01CE
:101CD0000E94190E182F682FCE010E94F50DBE012B
:101CE000812F0E940315EDCFCB010E94070E182F04
:101CF000F6CF1F93CF93DF93C091B40216E080918B
:101D0000B5028C1304C0DF91CF911F910895D0E0EC
:101D10001C9FF0011D9FF00D1124EA54FD4F4081DE
:101D2000518162817381848195810E94010D219688
:101D3000C770E5CF4091E6025091E7026091E8025A
:101D40007091E9028091EA029091EB020E94010DEC
:101D500008952091B4029091B50256E0291302C073
:101D600080E0089530E0529FF001539FF00D112460
:101D7000EA54FD4F7181761306C07081781303C059
:101D80007281741304C02F5F3F4F2770E7CF81E04B
:101D900008951F93CF93DF938091EB02807F09F02A
:101DA0004BC08091E802882309F446C08091B402B8
:101DB000C091B5024091E6025091E7026091E902BC
:101DC0007091EA02D42FD52316E0C817A9F190E04C
:101DD00061157105A9F1DF3F99F1189FF001199F75
:101DE000F00D1124DF01AA54BD4F11962C911197CB
:101DF000251326C02C91241323C012962C911297E0
:101E000021111EC013962D913C91261B370B283CA7
:101E10003105B0F48091EB028F7080618093EB020A
:101E2000E554FD4F80818F708061808386EE92E063
:101E30000E94880C0E94790EDF91CF911F91089526
:101E400001968770C2CFA1E1B0E0E9E2FFE00C9417
:101E5000352E8C0185E0F801DE011D9601900D9272
:101E60008A95E1F7F801F28086EEA82E82E0B82E7E
:101E70004091E9025091EA024115510509F45AC115
:101E80009091E6022091E702892F82238F3F09F487
:101E900051C1C080D18083809480E090E802B40179
:101EA000641B750BEE2009F4F6C08091EB02382F0D
:101EB000307F683C710508F0AFC031117AC0EF2C5B
:101EC0002D1116C09C1114C0F11012C08F708061CA
:101ED0008093EB020E949A0EC5010E94880C8091AB
:101EE000EB02F80185838E2D6196ECE00C94512E67
:101EF00081149104C9F18C2D8D218F3FA9F181E0CE
:101F00008F2580FF05C04F2D6D2D8C2D0E94A90EB1
:101F10008114910459F18C2D8D218F3F39F181E08D
:101F20008F25F82FF170BF2E80FF39C04F2D6D2DFA
:101F30008C2D0E94A90EA82E811131C0CD86DE867F
:101F40008D859E850E944B0E292F22952F7024305F
:101F500078F49F702230A8F09923B9F0F8019581A8
:101F6000907F99F4EA2CBFCF80E0CBCF80E0D9CF2F
:101F70002A5F2F70223068F0C8010E94880CAB2CB9
:101F8000F1CF992311F0882369F3805E883050F3F4
:101F9000F3CF803F38F3815F833070F7E3CFFF20CA
:101FA00009F4A1CF8091EB0281608093EB02E12CD8
:101FB0009ACF2D1105C09C1103C0FF2009F486C0E3
:101FC000C8010E94E40C882319F1FF2009F18091D7
:101FD000EB02803270F02091E6023091E702388700
:101FE0002F8319869B868A868C87CE0107960E944E
:101FF000880C86E0F801A6EEB2E001900D928A9579
:10200000E1F70E94C90E0E949A0EEE24E3946BCF72
:10201000C8010E94880CF9CF311114C0782D998A1B
:10202000888AA6016F2D89890E94F70C86EE92E0BE
:102030000E94880C86E0F50111928A95E9F70E94CA
:102040009A0EB5CF2D110EC09C110CC0F1100AC014
:102050008583C8010E94880C86E0F50111928A955B
:10206000E9F741CFC8010E94E40C882389F2FF20E0
:1020700079F28091EB02803208F4BBCF2091E60226
:102080003091E7023A8329831B829D828C828E8362
:10209000CE010196ACCF683C710508F03DC0EF2C35
:1020A000FF2009F4B5CF2D1129C09C1127C08091C4
:1020B000EB0280FD1AC0982F907FB9F08583903F86
:1020C00031F0982F907F905F8F70892B8583C801A6
:1020D0000E94880C86E0F801A6EEB2E001900D9215
:1020E0008A95E1F70E949A0EFECE86E0F801A6EEF0
:1020F000B2E001900D928A95E1F7F5CEC8010E94F9
:10210000E40C811176CF8091EB0281608093EB0229
:10211000C8010E94880CE7CE782D998A888AA6018A
:102120006F2D89890E94F70C86E0F50111928A953E
:10213000E9F7D8CFFF2009F46BCFC8010E94E40C67
:10214000E82E882309F464CF86E0F801A6EEB2E019
:1021500001900D928A95E1F786EE92E00E945D096A
:102160000E94C90EBFCFACE0B0E0E9EBF0E10C9407
:102170003E2E4F83588769877A878B879C87CE014D
:1021800007960E94230F8823B1F08A859B85892BAF
:1021900039F04F815885842F85238F3F09F06CC01B
:1021A00016E08091B4029091B502891343C02C9639
:1021B000E3E00C945A2E86E0FE013796DE0111967C
:1021C00001900D928A95E1F78A859B85892B41F3D1
:1021D0008F81988589238F3F19F32091B50230E0D4
:1021E000C9010196877099274091B40248171906D2
:1021F00071F40E94C40C1092B5021092B40286E0F1
:10220000E6EEF2E0DF011D928A95E9F7C9CF96E08C
:10221000929FD001939FB00D1124AA54BD4FFE018F
:10222000319601900D929A95E1F78093B5020E9444
:10223000790EB6CF819FC00111248A549D4F0E9410
:10224000230F882309F4B3CFE091B4021E9FF0015D
:102250001124EA54FD4F4081518162817381848150
:1022600095810E94010D8091B40290E001968770E3
:1022700099278093B40295CF69857A858B859C8553
:102280000E94010D8DCF682F80910401909105016E
:102290000E943F250895682F8091040190910501C7
:1022A0000E944225089580910401909105010E94A9
:1022B000452508958091F402859585958595089525
:1022C0008091F402877008959091F402977081E0F4
:1022D00009F480E008958091FF0208959091FF0233
:1022E000892B8093FF02089580959091FF02982397
:1022F0009093FF0208951092FF0208959091FE02BC
:10230000892B8093FE02089580959091FE02982378
:102310009093FE0208951092FE0208958091F502B6
:10232000089508950E94911108959091750392FF68
:1023300008C09091F502981721F08093F5020E9451
:10234000921108958091F502882329F01092F502E8
:1023500080E00E9492110895CF93DF93E0910401F1
:10236000F09105018091FF028083E0910401F091DA
:10237000050180819091FE02892B80839091F50266
:10238000992381F0E0910401F09105018081892B6E
:10239000808380910401909105010E94F7248111AE
:1023A0000E94A211C0910401D091050148E050E0C3
:1023B0006CEE72E0CE010E94CF2E892B59F088E09E
:1023C000FE01ACEEB2E001900D928A95E1F7CE01EC
:1023D0000E946924DF91CF91089508950E94ED1124
:1023E00008959091750392FF11C098E0899F900124
:1023F0001124622B6093F4020E94530D8091F40229
:102400008595859585950E94EE1108950E94530D3E
:1024100008951092F40280E00E94EE1108959091C8
:10242000F402809589238093F402282F277091F479
:10243000282F082E000C330B9217130659F0909199
:10244000750392FF07C08595859585950E94630D5C
:102450000E9409120895CF93C82F8091750382FBC3
:10246000992790F99C17E9F0C0FB82F980937503D6
:1024700080917403909175030E94861282E00E94FD
:102480000F128091110380FF0CC01F92CF9385E83B
:1024900092E09F938F930E94A2070F900F900F904E
:1024A0000F90CF9108958091750382FB882780F962
:1024B00091E089270E942B12089581E00E942B123F
:1024C000089580E00E942B1208956FEF7FEF90E057
:1024D00080E00E94172F089590E080E00E94F32E84
:1024E00021E0873E9E4F09F020E0822F089582E090
:1024F00090E00E94E52E089583E090E00E94E52E92
:10250000089584E090E00E94F32E0895BC0184E0D9
:1025100090E00E94172F0895AB01BC018FE090E07E
:102520000E940B2F0895AB01BC0183E190E00E9453
:102530000B2F089560E070E0CB010E949312089584
:1025400060E070E0CB010E948C120E949A12089504
:1025500067EE7EEF90E080E00E94172F60E082E05F
:1025600090E00E94F92E60E083E090E00E94F92E56
:102570001092B3021092B20260E074E184E090E045
:102580000E94172F60E086E090E00E94F92E6FEF26
:1025900087E090E00E94F92E40E050E0BA0188E028
:1025A00090E00E940B2F60E08DE090E00E94F92EF9
:1025B00040E050E0BA0188E190E00E940B2F60E01B
:1025C00087E190E00E94F92E40E050E0BA018CE1F2
:1025D00090E00E940B2F70E060E080E290E00E94AB
:1025E000172F40E050E0BA0188E190E00E940B2FE5
:1025F0000E94A01208950E94A8120895682F8EE0EC
:1026000090E00E94F92E0895A5E0B0E0EAE0F3E141
:102610000C943D2E0E94F1258C0180910003909135
:10262000010380179107A1F08FEF89838A831B82B2
:102630000E94F1258160782F9D838C8349815A8186
:102640006B818D810E942809109301030093000380
:102650002596E4E00C94592E0E94FD2560930D030D
:1026600070930E0380930F039093100360930903FC
:1026700070930A0380930B0390930C0308950895BD
:1026800008950E944013089508950E9444130895E8
:1026900081E008958CEE97E20E9452240E943F133D
:1026A0000E94411308950E94481308950E945313F5
:1026B0000895089508950E9459130E945A13089589
:1026C0000E94EE150E94DA0808950E94E8250E94F3
:1026D000F8160E9460130E94871E0E9445130895F9
:1026E000A5E0B0E0E6E7F3E10C94372E0E94481332
:1026F00081110AC00E9404130E94821F0E94ED08EB
:102700002596EAE00C94532E0E940E1782E0A82E24
:1027100083E0B82E750110E0F70101917F01812F50
:102720000E9414161F5F173009F440C00817A1F368
:102730008091110381FD0E941A160E945613C82E23
:1027400010E0812F0E941416082FF50181915F017E
:10275000081731F1F12CEE24E394D02ED8268D2DDC
:102760008E21B1F0CC20A1F0F9821A8391E0802F64
:102770008E2109F490E09B830E94F1258160782FDF
:102780009D838C8349815A816B818D810E942809A8
:10279000F394EE0CF6E0FF12E2CFF50131970083DF
:1027A0001F5F173071F60E942C13A6CF0813C0CFFD
:1027B000A1CF1F93CF93DF930E940815EC01C115A1
:1027C00080E5D807F0F5C11580E4D80708F09CC073
:1027D000C03ED10520F5CD3CD10508F082C0C83AF5
:1027E000D10578F4C53AD10508F073C0C130D105E0
:1027F00019F1209709F1C430D105F0F4D0E0C0E020
:102800001BC0C13CD105D0F7C85AD0E0CC0FDD1FAA
:10281000C55ADE4F0990D881C02DD4640DC0C115B2
:1028200080E2D80708F0D1C0C11581E0D80708F0D0
:102830005AC0C83ED10510F7CE01DF91CF911F914C
:102840000895C03682E5D80718F5C03482E5D80768
:1028500008F06BC0C03282E5D80708F05FC0C11530
:1028600082E5D80708F497C02C2F2695269580E29C
:10287000289F900111248C2F8370C1E0D0E002C00A
:10288000CC0FDD1F8A95E2F7C22BD32BDD68D4CFA6
:10289000C03A82E5D80760F4C03882E5D80708F46A
:1028A00059C0CF71D0E0DC2FCC27C46FD06AC4CF21
:1028B000C03C82E5D80708F462C0C03E82E5D80774
:1028C00008F09CCFDC2FCC27CC27DF71C06FD06AFB
:1028D000B3CFC55AD0E0CF56DE4FC881D0E0D06428
:1028E000ABCFD065A9CF8D2F0E94AA15182FCE018E
:1028F00099270E940815C12FD0E0DC2FCC27CC27C8
:10290000DF71C82BD92B98CFCE0199270E940815CB
:10291000CC27DF70C82BD92BD06A8ECFCF71D0E0F7
:10292000DC2FCC27C16FD06A87CF2C2F2695269518
:10293000277080E2289F900111248C2F8370C1E0C2
:10294000D0E002C0CC0FDD1F8A95E2F7C22BD32B5B
:10295000DC6872CF2C2F26952695277080E2289F61
:10296000900111248C2F8370C1E0D0E002C0CC0F05
:10297000DD1F8A95E2F7C22BD32BDA685DCF8C2F4F
:102980008F710E94AA15C82FD0E0DC2FCC27CC274E
:10299000DF71D06251CF8C2F8F710E94AA1555E044
:1029A000D695C7955A95E1F7CF70D0E0DC2FCC27AC
:1029B000282F30E084FF05C044E0220F331F4A95E2
:1029C000E1F7C22BD32BD06937CF8D2F8F710E94A7
:1029D000AA15182FCE0199270E940815C12FD0E003
:1029E000DC2FCC27CC27DF71C82BD92BD2CF462F99
:1029F000773030F4663020F4672F0E94C7070895BF
:102A000090E080E008950E94F7140E94D913089581
:102A100082389105B9F1B0F48133910509F47DC094
:102A200048F48932910509F46DC08A32910509F4A0
:102A30007BC008958533910509F45FC08933910502
:102A400009F10895833E9105D9F138F4803E91054E
:102A500029F1823E910579F10895863E9105D9F1DB
:102A6000873E910509F43EC0843E910541F52091D1
:102A7000750321FF24C08091740384FD19C087EE83
:102A800090E0089520917403237009F05AC02091BA
:102A9000750323FF14C089E290E008952091740328
:102AA00020FD38C03091750330FF09C024FF43C0BA
:102AB00090E080E008952091740322FDF7CF0895FF
:102AC0002091740322FD3AC03091750330FD39C066
:102AD00024FFF5CFEDCF2091740323FFF0CF24FD29
:102AE000E7CFCDCF2091740323FD2EC03091750325
:102AF00031FFEECF84EE90E008952091740325FF1E
:102B0000DECFC9CF2091740325FD21C0209175032C
:102B100023FFD5CF89E390E0D2CF2091740326FF25
:102B2000CECF8AE290E008952091740326FFC7CFAC
:102B300081E390E0089583EE90E0089582EE90E0C6
:102B4000089580EE90E0089586EE90E0089585E384
:102B500090E008959091740392FF06C0282F287189
:102B60002830F9F4877F846093FF06C0282F2871EE
:102B70002831F1F4877E84612091750320FF06C01F
:102B8000382F38713830D9F4877F816021FF06C033
:102B9000282F28712831D1F4877E816194FD877EAA
:102BA0000895282F24712430F9F68B7F8860DCCFBC
:102BB000282F2471243101F78B7E8861DDCF382FD7
:102BC0003171313019F78E7F8860E0CF282F217165
:102BD000213121F78E7E8861E1CF08950E946C1229
:102BE000811102C00E94FB120E9477128093110390
:102BF0000E94811290937503809374030E94ED15D7
:102C00000E947C1290E00E94170D8091B00290917A
:102C1000B1020E94380D089508950E940C1608957F
:102C200008950E9410160895E82FF0E0E358FC4F35
:102C300080810895B0E0A0E0E0E2F6E10C94392E46
:102C400089EA92E00E9409078DE7E82E83E0F82EDA
:102C5000D0E0C0E094EAC92E92E0D92E0CE912E04F
:102C6000DF93CF93DF92CF920E94A20781EA92E096
:102C70000E940907F70181917F010E94AF081F920E
:102C80008F931F930F930E94A2078AE992E00E94FC
:102C9000090721968DB79EB708960FB6F8949EBF88
:102CA0000FBE8DBFC730D105D9F6CDB7DEB7E8E08E
:102CB0000C94552E80EA8A95F1F7089500C0089586
:102CC0000E945A160895F894E82FE295EF70F0E00C
:102CD00031A1282F2F7081E090E001C0880F2A9544
:102CE000EAF7982F9095932391A392A1892B82A321
:102CF000789408950F931F93CF93DF93CAE9D1E09F
:102D000089918F3F11F00E94631681E0C13AD80784
:102D1000B9F7C4E9D1E00AE911E089918F3F11F0D8
:102D20000E9463160C171D07C1F7DF91CF911F9109
:102D30000F910895B0E0A0E0E0EAF6E10C94392E9E
:102D4000EC01D62E062F10E0C80186569E4F7C015E
:102D5000FC0180818F3F09F444C0F894E82FE2958C
:102D6000EF70F0E091A18F7021E030E001C0220F00
:102D70008A95EAF7892F822B81A382A120952823A7
:102D800022A378940E945E16E4E9F1E031E0C12CC0
:102D900021912F3F59F1A22FA295AF70B0E09096EC
:102DA0008C9190E02F7002C0959587952A95E2F757
:102DB00080FD1CC0832FC82A330F81E0EA39F80751
:102DC00039F7F70180818F3F11F00E94631661E0AF
:102DD000C11001C060E08D2D0E946016C00FD11F90
:102DE000C882CDB7DEB7E8E00C94552E80E0E3CF83
:102DF0000E947A1687E0EDE7F3E0DF01982F1D923D
:102E00009A95E9F7E6E7F3E0DF011D928A95E9F785
:102E100087E00E9449170E940D160895A7E0B0E0D0
:102E2000E4E1F7E10C943C2E8E010F5F1F4F87E029
:102E3000F80111928A95E9F7F12C6F2DC8010E94D3
:102E40009A16F394F7E0FF12F8CF47E050E0B8018C
:102E500086E793E00E94CF2E21E0009709F420E05E
:102E6000892B41F087E0F801A6E7B3E001900D92CD
:102E70008A95E1F747E06DE773E086E793E00E940B
:102E80004A17182F0E941116812F2796E5E00C94FF
:102E9000582E0895CF92DF92EF92FF920F931F93D7
:102EA000CF936C017B01042F222349F081E08093B2
:102EB00014030E94F1259093130380931203C09191
:102EC0001403C1110AC0C0E08C2FCF911F910F9144
:102ED000FF90EF90DF90CF90089580911203909132
:102EE00013030E940926059770F310E0A801B601AC
:102EF000C7010E94CF2E892B41F0A801B601C7015E
:102F00000E94DC2E10921403DFCFC0E0FBCF0E94A2
:102F100068280E9465130E94752808950E947A28E7
:102F20000E9470130E94982808950E948A250E948A
:102F30004E280E944A130E9487170E948E170E94F3
:102F40005B13FBCFEF92FF920F931F93CF93DF930F
:102F5000EB01E82FD1110EC0442321F0F0E0ED5D2C
:102F6000F84FE4916E2F7E2F8E2FCDB7DEB7E6E0BF
:102F70000C94572E0D2F10E0282F30E0442329F019
:102F80002D5D384FF901249130E0F6E0CF9FC0016C
:102F90001124EFEFF0E0BF010E94AE2DAB018C2FAA
:102FA00090E0880F991FA5E5A49FB001A59F700D23
:102FB0001124861B970B982F990F980FBF01601B48
:102FC000710B629FD001639FB00D729FB00D1124F1
:102FD0008B2F9D9FB0011124672F7727EF01C61B10
:102FE000D70BBE01629FE001639FD00D729FD00D91
:102FF00011247F01E91AF108E09EB001E19E700DF5
:10300000F09E700D1124672F7727E61BF70BE29FC8
:103010008001E39F100DF29F100D1124E12F722FFC
:103020004230510599F048F44115510569F041309D
:10303000510581F0EB2F8D2F07C04430510569F009
:1030400080F046305105B1F76E2F8FCFE22F7B2FE6
:10305000812FFACFE22F7D2FF7CFEB2F822F712F09
:10306000F3CF7B2F822FED2FEFCF41E00E94A217ED
:10307000089508950E9435180895CF93DF93762F11
:10308000E901682F842F0E943A18798368838A8324
:10309000DF91CF91089580918403982F9E7F29F42A
:1030A000817082608093840308958635E8F381708F
:1030B0008465F8CF88E090E00E94ED2E0895CF92CD
:1030C000DF92EF92FF926B017C010E944B18B701D7
:1030D000A60188E090E00E940B2FFF90EF90DF9018
:1030E000CF900895E4E8F3E083E0808311828FEFCE
:1030F00082838383148260817181828193810E94A3
:103100005F1808958091110380FF76C080EF95E0ED
:103110009F938F930E94A207809111030F900F90AD
:1031200080FF6AC08091840381701F928F9383ED2A
:1031300095E09F938F930E94A207809111030F90B7
:103140000F900F900F9080FF57C080918403869559
:103150001F928F9388EB95E09F938F930E94A20715
:10316000809111030F900F900F900F9080FF44C03B
:10317000809185031F928F938EE995E09F938F93A3
:103180000E94A207809111030F900F900F900F9053
:1031900080FF32C0809186031F928F9384E895E070
:1031A0009F938F930E94A207809111030F900F901D
:1031B0000F900F9080FF20C0809187031F928F9304
:1031C0008AE695E09F938F930E94A2078091110356
:1031D0000F900F900F900F9080FF0EC0809188038A
:1031E0001F928F938EE495E09F938F930E94A20786
:1031F0000F900F900F900F9008958091840380FF9F
:1032000002C08695089580E00895909188039330D8
:1032100018F49F5F90938803882351F06091840392
:103220007091850380918603909187030E945F18B7
:10323000089581E00E9405190895909188039923CB
:1032400019F0915090938803882351F06091840382
:103250007091850380918603909187030E945F1887
:10326000089581E00E941D19089570E00E94AD202C
:10327000089560910A018091840380FF0BC08091C2
:10328000090123E0829FC001112487579C4F0E94AF
:103290003519089580910B0190910C0123E0829FD4
:1032A000F0011124E757FC4F891748F7118210826B
:1032B00012828F5F3396F8CF9091840390FF0EC0F7
:1032C00090910B0120910C0133E0939FF0011124A8
:1032D000E757FC4F921718F00E943919089581831F
:1032E000608342839F5F3396F5CFA3E0B0E0EBE7C6
:1032F000F9E10C943F2E9091840390FF0AC09E0147
:103300002F5F3F4F0E943D184B8169818A810E9447
:103310005C192396E2E00C945B2ECF93DF93EC01D3
:10332000EC81F0E0E25EF94F4491E4E8F3E0628181
:1033300081810E9475198C818F5F8C83DF91CF9181
:103340000895CF93DF93EC01E4E8F3E043816281D9
:103350008C810E9475198C818F5F8C83DF91CF9156
:103360000895A3E0B0E0E7EBF9E10C943D2E8C0169
:103370008091150381110AC09E012F5F3F4F4FEFCF
:103380006FEF0E943D188A8180931503F8016481D4
:10339000613069F08091150340E0662361F040E000
:1033A000623011F44091150380E060E004C0609148
:1033B000150340E080E00E945C19F801848190E0F0
:1033C000019663E070E00E94C22D84832396E4E0BE
:1033D0000C94592EA3E0B0E0E0EFF9E10C94322E0A
:1033E000082FE62EF42EC22E9091840390FF45C044
:1033F000E92FE695AE2FB0E0AF55BE4F8C9180938C
:1034000058039E7F9230E9F59E012F5F3F4F802F3A
:103410000E943D184B8169818A810E945C1900934A
:103420008503E0928603F0928703CC2009F486C0DE
:103430006091840370918503809186039091870346
:103440000E945F188091110380FF17C0809187034D
:103450001F928F93809186031F928F938091850393
:103460001F928F9381E193E09F938F930E94A20715
:103470000FB6F894DEBF0FBECDBF2396EFE00C94DD
:103480004E2E823019F4F0908703C9CF863019F49C
:1034900000918503C4CF8930D9F3893109F0BFCFBA
:1034A000E9518E2F8170782E8E2F80958170D82EC5
:1034B000E695F0E0E25EF84F1491612C96E3A92EB8
:1034C00093E0B92E60910D01661618F00E9439192B
:1034D000A6CF619EC001112470E00E94AE2D502E37
:1034E00071102AC0560E862C912C8091110380FFFA
:1034F00011C01F921F931F92DF921F925F921F9223
:103500006F92BF92AF920E94A2070FB6F894DEBFEF
:103510000FBECDBF20910B01820E911C9401220F92
:10352000331F280D391D27573C4F4F2D6E2D852DEC
:103530000E943D186394C6CF561AD5CF80911103CF
:1035400080FF9BCF1F92FF921F92EF921F920F93CB
:103550008AEE92E089CFE4E8F3E09181282F43815D
:10356000628180E1890F0E94EA19089581E00E943A
:10357000AB1A0895E4E8F3E09181282F438162813A
:1035800080EF890F0E94EA19089581E00E94BA1A1B
:103590000895E4E8F3E0628120E1620F08F46FEF40
:1035A000282F438181810E94EA19089581E00E94B9
:1035B000C91A0895E4E8F3E0628120E1621B08F48F
:1035C00060E0282F438181810E94EA19089581E0FB
:1035D0000E94DA1A0895E4E8F3E0438120E1420F03
:1035E00008F44FEF282F628181810E94EA19089523
:1035F00081E00E94EB1A0895E4E8F3E0438120E1C2
:10360000421B08F440E0282F628181810E94EA1960
:10361000089581E00E94FC1A089520E00E94EA19B2
:103620000895EF92FF921F93CF93DF93EC0110E088
:10363000EE24EA94F12C60910D01161770F00E94AF
:1036400039199A818C8190FF27C08F5F8C83DF911D
:10365000CF911F91FF90EF90089520910B01422F81
:10366000410F5527551FCA019A01220F331F280FFA
:10367000391F27573C4F70E0C7010E94C22D962F7B
:103680008C814091870360918603199F800D1124DE
:103690000E943D181F5FCFCF8150D8CFB0E0A0E08F
:1036A000E4E5FBE10C94372EFC0182810FEF80FFF3
:1036B00001E010E04BE0A42E80910D01181798F066
:1036C0000E94391980911703013009F04FC0811110
:1036D00002C080910D01815080931703CDB7DEB7F2
:1036E000EAE00C94532EC0910B01C12ED12CCC0DCD
:1036F000DD2DD11DCE01880F991FC80FD91FC757C7
:10370000DC4F198218821A8234E0E32EF12CB12C9E
:10371000809117038B0D8C301CF16A2D0E94A02D17
:10372000892F082E000C990BC816D90691F48091A8
:1037300087038E9DA0018F9D500D112455954795AF
:10374000559547959E0160918603809185030E945F
:103750003D18B00EF1E0EF1AF108D1F61F5FACCFC3
:1037600087FFDFCF90910D01890FDBCF90E00196AD
:1037700060910D0170E00E94C22DAECF0F931F9398
:10378000CF93DF9380910B0190910C0123E0829FF6
:10379000F0011124E757FC4F891740F1C0E0D3E056
:1037A00060910D01C61740F10E943919209107015F
:1037B00080911603820F8093160390910801920F57
:1037C00090930801191654F4082E000C990B40919F
:1037D0000D014150550B841795071CF0219520933E
:1037E0000701DF91CF911F910F91089511821082EF
:1037F00012828F5F3396D0CF0C2F10E070E0C8019B
:103800000E94C22D20910B01820F482F50E0209181
:103810001603022E000C330B02171307BCF0209185
:103820000801022E000C330B201731077CF08D9F0E
:103830009001112427573C4F4091870360918603E4
:10384000809185030E943D18CF5FAACFFA01EE0F49
:10385000FF1FE40FF51FE757FC4F11821082128201
:10386000F3CFB0E0A0E0E7E3FCE10C94352EEC01EF
:103870004C81042F10E09801D8010E94062E9B0174
:10388000AC010E941C2E4B015C01E0E2F0E0E01B69
:10389000F10BA5E5B0E0AC019B010E941C2E6B0171
:1038A0007C019F01DF010E94FE2D9B01AC010E9463
:1038B000272E9B01AC01280D391D4A1D5B1DC70138
:1038C000B6010E94D62DF22E822F90E039E23F15EC
:1038D00020F143E0249F9001112435952795122F64
:1038E000109500E085E5E82EEF1880910D0108178E
:1038F00018F10E9439199C8181E0992319F09032C6
:1039000019F48FEF8093060180910601890F8C8353
:10391000CDB7DEB7ECE00C94512E25E530E0B901CF
:10392000681B790B9B01220F331F260F371F37FFB0
:10393000D4CF2F5F3F4FD1CF8E2D01FD8F2D209102
:103940000B01622F600F7727771F9B01220F331F18
:10395000260F371F27573C4F412F609186030E9447
:103960003D180F5FC2CF0F931F93CF93DF93EC01EE
:1039700010E000E090910D019017110609F06CF431
:103980000E9439198C8190E00196817099278C836F
:10399000DF91CF911F910F91089520910B01A80104
:1039A000420F511D9A01220F331F240F351F275735
:1039B0003C4F4C81609186038091850396959017CA
:1039C000110651F04CF0442349F0409187030E94C6
:1039D0003D180F5F1F4FCECF4423B9F340E0F7CF20
:1039E000B0E0A0E0E6EFFCE10C94312EFC01628037
:1039F000448081E08483EEE1F6E07490EDE9F6E046
:103A0000E491C0918703C695C158D0E0CC0FDD1F6B
:103A1000CD2FDD27812C75E0972EAA24AA94B12CF6
:103A200055245A94E719EE2EF12C80910D01881639
:103A300038F00E943919CDB7DEB7E0E10C944D2E75
:103A4000C82CD12C82E0861568F09C9CF0019D9CCE
:103A5000F00D1124E85EFC4F8091850380838091F6
:103A600086038183411023C09C9CF0019D9CF00D36
:103A70001124E85EFC4F1382128220910B01C601D3
:103A8000820F911D9C01220F331F280F391F2757CA
:103A90003C4F9C9CF0019D9CF00D1124E85EFC4F76
:103AA0004281618180810E943D188394BECF9C9C9D
:103AB00080019D9C100D1124085E1C4FF80183812C
:103AC0008823F1F081508383859DC0011124648196
:103AD00070E00E94AE2DFB01FF27E25EF94F84915A
:103AE000E82FE719E59DC0011124B7010E94AE2D12
:103AF00080918703689FB0011124F8017283BDCFC4
:103B00000E94B22EB5010E94C22D8C179D070CF0A9
:103B1000B4CFF2E0F61598F40E94B22EB5010E94DF
:103B2000C22DF80180830E94B22E20918603269533
:103B3000622F70E00E94C22D280FF80121839C9C07
:103B4000F0019D9CF00D1124E85EFC4F12828091E3
:103B50008703893C58F088EC9C9CF0019D9CF00DFB
:103B60001124E85EFC4F8483838387CF8431A0F7E0
:103B700084E1F2CF60918403669570E04BE050E001
:103B80008EE091E00E94C22E892B19F481E080938F
:103B900059030E94F1259093500380934F03809125
:103BA000110380FF08C081ED92E09F938F930E94E4
:103BB000A2070F900F90089510925903809111035E
:103BC00080FF08C088EB92E09F938F930E94A2072A
:103BD0000F900F9008959091840390FF3EC09170D4
:103BE00081113CC09260909384036623F1F160914F
:103BF00084037091850380918603909187030E94CE
:103C00005F188091110380FF0FC080918403869517
:103C10001F928F9384E994E09F938F930E94A20751
:103C20000F900F900F900F9060918403669570E055
:103C30004BE050E08EE091E00E94C22E892B09F10A
:103C40000E94DC1D81E080935203409187036091C4
:103C50008603809185030E940D1B08958B3210F01E
:103C60009465C1CF880F982BBECF8091110380FF40
:103C7000DBCF8091840386951F928F9386E794E033
:103C8000CBCF0E94BA1DDECF682F9091840396950A
:103C900081E0890F8B3208F081E00E94EB1D0895CE
:103CA00081E00E94441E0895682F909184039695A8
:103CB0008FEF890F09F48AE20E94EB1D089581E0DD
:103CC0000E94541E089561E00E94EB1D08958091AA
:103CD00084038160809384038091110380FF0DC071
:103CE0001F9281E08F9388E094E09F938F930E94CE
:103CF000A2070F900F900F900F90809184038695EC
:103D00000E94631E089560E00E94EB1D089580915B
:103D10005703811160C08091110380FF14C087E3B5
:103D200095E09F938F930E94A207809111030F90BB
:103D30000F9080FF08C081E295E09F938F930E94CF
:103D4000A2070F900F900E946C12811110C08091F9
:103D5000110380FF08C089EF94E09F938F930E9426
:103D6000A2070F900F900E94FB120E9472180E94EF
:103D70005A1860938403709385038093860390930D
:103D800087036E7FC1F48091110380FF08C080EB30
:103D900094E09F938F930E94A2070F900F900E9430
:103DA00072180E945A18609384037093850380935D
:103DB0008603909387030E944B180E9482181092EA
:103DC00059038091840380FF03C086950E94831E5F
:103DD00081E08093570308958091840381608093EC
:103DE00084038091110380FF0DC01F9281E08F93A7
:103DF0008FEC93E09F938F930E94A2070F900F90F8
:103E00000F900F908091840386950E94831E0895E1
:103E1000109256038091550381110E94EC1E0E945E
:103E2000BA1D0895809184038E7F809384036091EE
:103E300084037091850380918603909187030E948B
:103E40005F188091110380FF0FC0809184038170FF
:103E50001F928F9387E993E09F938F930E94A2070D
:103E60000F900F900F900F900E94DC1D0E94391947
:103E700008958091110380FF10C080918403809584
:103E800081701F928F938FE394E09F938F930E9492
:103E9000A2070F900F900F900F908091840380FFE6
:103EA00003C00E94121F08950E94671E089580910A
:103EB00084038E7F809384038091110380FF0CC064
:103EC0001F921F928DE593E09F938F930E94A2070C
:103ED0000F900F900F900F900E94DC1D0E943919D7
:103EE00008950E94DC1D8091560381110AC081E073
:103EF00080935603809184038170809355030E94C0
:103F0000571F08950F931F93CF93DF938091590309
:103F10008823B9F180915803E0918403E695E81B6A
:103F2000E0935103823091F5F0E0E65EF94FE491C1
:103F3000CE2FD0E00DE819E180915203882361F083
:103F4000109252030E94F1259093500380934F03E7
:103F500010925403109253030E94F125E0914F03F5
:103F6000F09150038E1B9F0B8F3F9F4750F4EC0F37
:103F7000FD1FF0935003E0934F038FE493E0F801AB
:103F80000995DF91CF911F910F910895863049F4E3
:103F9000F0E0E95EF94FE491CE2FD0E001EA19E1BB
:103FA000CBCF893051F4E695F0E0EC5EF94FE49127
:103FB000CE2FD0E001E11BE1BFCF8F3051F4E69569
:103FC000F0E0EF5EF94FE491CE2FD0E00EE41BE17C
:103FD000B3CF853149F4F0E0E25FF94FE491CE2FA1
:103FE000D0E00EEB1BE1A8CFC8E2D0E001E31CE17A
:103FF000883109F4A1CF833239F4ECE0F6E0C591C1
:10400000D49101EB19E198CFC4EFD1E003EB1CE1AF
:10401000843209F491CFC0EDD7E009E318E185328D
:1040200009F08ACF8E2F63E00E94942DE92FF0E0F3
:10403000E75FF94FE491CE2FD0E000EF1CE17CCF99
:10404000FA01811101C0FB0109950895CF93DF9317
:10405000C82FD62F0E94FD188C1748F00E94FD181B
:104060008D1728F40E94501EDF91CF9108958C2F58
:104070000E94631EF9CF1F93CF93DF93EC01FB01E6
:104080001281111110C00E946B118272FE01E05268
:10409000F847E531F10508F05EC0E65AF04D0C94A2
:1040A000F82D0E94391F812FDF91CF911F91089524
:1040B0004FE55EE160E57EE10E942020F4CF40E51F
:1040C0005EE16FE57EE1F8CF45EC5AE166EB7AE11F
:1040D000F3CF46EB5AE165EC7AE1EECF47EE5AE1D9
:1040E00066ED7AE1E9CF46ED5AE167EE7AE1E4CF99
:1040F00049E05BE168EF7AE1DFCF48EF5AE169E040
:104100007BE1DACF41E359E169E179E1D5CF49E1DA
:1041100059E161E379E1D0CF81E00E94631EC3CF12
:1041200065E082E00E942620BECF68E086E0FACFFC
:104130006EE089E0F7CF64E18FE0F4CF67E185E1DD
:10414000F1CF88E1EACF62E289E1ECCF83E2E5CF0B
:104150006AE285E2E7CF11E0A6CF539A4BB1477FE1
:104160005BB15860EFB7F8949B01220F331F260F05
:10417000371F280F391F2817390741F4EFBF8FE584
:1041800094E00197F1F700C000000895DC016D9103
:10419000CD0178E05BB9000000C067FF4BB9660F46
:1041A000000000C000C000C04BB900C07A9591F774
:1041B000E2CFCF93DF93EC01FB018281882309F4E6
:1041C000D2C09E0130572332310508F0B2C00E94A0
:1041D00081129093750380937403FE01E150F047C0
:1041E000E232F10520F4E159F04D0C94F82D809164
:1041F000740381608093740393C080917503886019
:10420000809375038DC0809174038260F3CF809199
:1042100074038460EFCF809174038860EBCF80914A
:1042200075038160EDCF809175038260E9CF809145
:1042300074038061DFCF809174038062DBCF809153
:1042400074038064D7CF0E94C40C8091740380688B
:10425000D1CF809174038C60CDCF80917503836042
:10426000CFCF809174038E7FC5CF80917503877FF8
:10427000C7CF809174038D7FBDCF809174038B7FF6
:10428000B9CF80917403877FB5CF809175038E7FFE
:10429000B7CF809175038D7FB3CF809174038F7EEC
:1042A000A9CF809174038F7DA5CF809174038F7BFC
:1042B000A1CF0E94C40C809174038F779BCF809113
:1042C0007403837F97CF809175038C7F99CF809102
:1042D000740382FB992790F921E0922790FB82F9E1
:1042E00090FB83F987CF80917503982F90959170FB
:1042F0008E7F892B90FB81F983CF90917403892F56
:104300008F7B96FF806476CF0E94C40C90917403DB
:10431000892F97FB87F980586DCF81E00E94FE12AC
:1043200080917403909175030E9486120E94C40CC0
:1043300080E0DF91CF91089580E0F0CF90917403F9
:10434000892F8F7E94FF806155CF90917403892FC0
:104350008E7F90FF81604ECF90917503892F877F6C
:1043600093FF88604DCF81E0E4CFCF93C82F1F9299
:104370008F9389E298E09F938F930E94A20781E038
:1043800090E002C0880F991FCA95E2F70E94170DAE
:104390000E94C40C0F900F900F900F90CF91089532
:1043A000EF92FF920F931F93CF93DF938B3109F41A
:1043B00010C108F0B0C08B3009F4CCC008F082C046
:1043C000863009F4DAC048F4853009F4B2C082ECD2
:1043D0009BE00E94090780E0E0C0873009F4E2C05A
:1043E0008830A9F70E947C121F928F9385EA9BE088
:1043F0009F938F930E94A2070E94771283FB9927B5
:1044000090F91F929F9382FB992790F91F929F9397
:1044100081FB992790F91F929F93982F91701F927B
:104420009F931F928F938CE59BE09F938F930E94A5
:10443000A2070E94811293FB222720F91F922F933B
:1044400087FB222720F91F922F9386FB222720F932
:104450001F922F9385FB222720F91F922F9384FB15
:10446000222720F91F922F9383FB222720F91F92E6
:104470002F9382FB222720F91F922F9391FB222753
:1044800020F91F922F93292F21701F922F9381FBC8
:10449000222720F91F922F93282F21701F922F93EC
:1044A0009F938F938DE59AE09F938F930E94A2072D
:1044B0008DB79EB78A960FB6F8949EBF0FBE8DBF7C
:1044C00081E06BC0803109F49CC080F48E3009F02B
:1044D0007ECF90911103892F8B7F92FF8460809310
:1044E000110382FF8BC08DEE9BE07FC0863109F403
:1044F00098C0893109F06BCF8CEC91E09F938F933A
:1045000089E998E09F938F930E94A2070F900F90E4
:104510000F900F90D5CF8A3249F190F4873211F184
:1045200028F48E3108F453CF8D511DC0893209F023
:104530004ECF80E39CE00E9409070E942808C0CF6C
:10454000833468F48A3308F091C0853359F0883396
:1045500009F03DCF87EB98E00E940907B1CF833483
:1045600009F035CF80E00E94B521AACF80E59CE01C
:104570000E9409070E94FB12A3CF80911103807F44
:10458000809311038CE998E00E9409078CE49CE079
:104590000E94090781E080935A03CDB7DEB7E6E0B9
:1045A0000C94572E90911103892F8E7F90FF81607C
:1045B0008093110380FF03C084E29CE0CDCF87E1AC
:1045C0009CE00E94090780911103817F8093110371
:1045D00077CF90911103892F8D7F91FF8260809317
:1045E000110381FF08C08AE09CE00E9409078091C6
:1045F00011038160EBCF8CEF9BE0AECF8DED9BE0A4
:10460000ABCF90911103892F877F93FF88608093B0
:10461000110383FF03C081ED9BE0E7CF84EC9BE0B7
:104620009BCF0E94FD25162F072FF82EE92ED09143
:104630007303C09121010E945C24EF92FF920F93BB
:104640001F931F92DF931F92CF931F928F938EE23F
:1046500098E09F938F930E94A2078DB79EB70C9608
:104660000FB6F8949EBF0FBE8DBF2ACF89537BCF64
:1046700080E008950E9438230895CF93C82F809139
:104680005A03882331F0813099F010925A0380E068
:104690000DC00E946B118232D1F78C2F0E943823FB
:1046A000811119C08C2F0E94D0218170CF91089563
:1046B0000E946B11823289F38C2F0E943A23811160
:1046C00019C0C431C9F050F4CB3061F083E298E0F6
:1046D0000E94090713C081E090E0E7CFC93261F082
:1046E000C833A1F78CE998E00E94090785E298E0B9
:1046F0000E94090781E0D9CF10925A0380E0D5CFFC
:10470000CF93DF93EB0186319C4711F50E946B112B
:104710009A81992399F08A7A91E009F490E0909334
:104720005B03811109C089E20E9443110E94AC1110
:1047300080E0DF91CF91089585E3F6CF80915B0310
:10474000811104C089E20E944B11F0CF85E3FBCFB9
:1047500081E0EFCF0F931F93CF93DF93C42FD22F1E
:10476000FC0182818823C9F040935E030E94F125F9
:1047700090935D0380935C0380E28C0F883040F45B
:10478000C77081E001C0880FCA95EAF70E94630AEA
:10479000DF91CF911F910F91089510915E03141333
:1047A00032C080915C0390915D030E940926883C91
:1047B000910548F5C0E2CD0F1D17B9F080E2810FD9
:1047C000883040F4177081E001C0880F1A95EAF72D
:1047D0000E946A0AC83048F481E09D2F977001C09A
:1047E000880F9A95EAF70E94630A802F0E945A0A5E
:1047F000C83070F6D77081E001C0880FDA95EAF70B
:104800000E946A0AC5CF80E28C0F883008F6C77014
:1048100081E001C0880FCA95EAF7F2CF0F93DB0160
:1048200088519C4787309105A0F5FC01EF56F04D6B
:104830000C94F82D06E221EE41EE6AE17CE7CD0111
:104840000E94AA2380E00F91089507E225EE45EE2D
:104850006BE17CE7F4CF06E221EE40EE68E17CE715
:10486000EECF07E225EE44EE69E17CE7E8CF06E211
:1048700021EE42EE6CE17CE7E2CF07E225EE46EE68
:104880006DE17CE7DCCF08E221E045EE6EE17CE7FC
:10489000D6CF12968C91882319F010925E03D3CF55
:1048A00081E0D1CF909391028093900208959093EC
:1048B0006403809363030895E0916303F0916403BC
:1048C000309729F00190F081E02D0995089580E05E
:1048D0000895EF92FF920F931F93CF93DF938C0174
:1048E000E0916303F0916403309791F10280F381CA
:1048F000E02D09958091110382FF2AC080FF04C03A
:1049000089E69CE00E940907D0E0C0E083E6E82E3B
:104910008CE0F82E8091110380FF0EC0F801EC0F9F
:10492000FD1F80811F928F93FF92EF920E94A2073A
:104930000F900F900F900F902196C830D10551F72E
:104940008091110380FF04C081E69CE00E9409076A
:10495000CDB7DEB7E6E00C94572EA3E0B0E0E3EB72
:10496000F4E20C943F2E20916103309162032817EA
:104970003907A1F09093620380936103E091630390
:10498000F0916403309751F023E029839B838A835D
:104990000680F781E02DCE01019609952396E2E08D
:1049A0000C945B2EA3E0B0E0E8EDF4E20C943F2E13
:1049B00020915F033091600328173907A1F090938D
:1049C000600380935F03E0916303F0916403309789
:1049D00051F024E029839B838A830680F781E02DB0
:1049E000CE01019609952396E2E00C945B2E9C0182
:1049F0002E5F3F4FAC01485F5F4F80E024173507C3
:104A000009F40895F90191919F019923B9F38F5FFA
:104A1000F5CF662349F0FC013296089621912617BE
:104A200029F0E817F907D1F780E0089581E00895AB
:104A30009C01FC0132969FEF80E04191461751F0B6
:104A40009F3F19F4411101C0982F8F5F8630A9F75D
:104A50009F3F09F40895290F311D97FD3A95F901FB
:104A600062830895FC01329608962191261303C0B3
:104A7000DF0111971C92E817F907B9F708950E9412
:104A8000182508950E9432250895029626E0FC011B
:104A900011922A95E9F7089508950E944C250895EA
:104AA000811106C081E0809365030E944D25089521
:104AB00082E0F9CF83E0809365030E944D2508953D
:104AC0000E945025089581E0809365030E944D2542
:104AD00008950E9463250895089508950E946D2504
:104AE0000895089508950E946C250895CF930E941B
:104AF00071250E940E170E947225C0E08C2F0E9423
:104B00001416811105C0CF5FC730C1F7CF9108954A
:104B100081E0FCCF85B7806885BF85B7806885BF99
:104B200008951F921FB61F9211248F939F93AF93E6
:104B3000BF9380916603811113C08091AA03909165
:104B4000AB03A091AC03B091AD034196A11DB11D83
:104B50008093AA039093AB03A093AC03B093AD03EF
:104B6000BF91AF919F918F911F901FBE1F9018957D
:104B70008091B203843031F10E94A1081092660343
:104B800088E190E020E40FB6F894A8958093600047
:104B90000FBE2093600083B7817F846083BF83B79B
:104BA000816083BF7894889583B78E7F83BF0FB66B
:104BB000F894A895809160008861809360001092BD
:104BC00060000FBE08950E94C40C0E94A8080895BA
:104BD00082E084BD93E095BD9AEF97BD80936E000F
:104BE00008952FB7F8948091AA039091AB03A091F8
:104BF000AC03B091AD032FBF08952FB7F894609127
:104C0000AA037091AB038091AC039091AD032FBFC9
:104C100008959C014FB7F8948091AA039091AB033B
:104C2000A091AC03B091AD034FBF821B930B0895CD
:104C300078941F921FB61F9211248F939F93AF9366
:104C4000BF938091AA039091AB03A091AC03B09164
:104C5000AD030196A11DB11D8093AA039093AB03F0
:104C6000A093AC03B093AD03BF91AF919F918F918F
:104C70001F901FBE1F90189587E797E79093010834
:104C80008093000888E19AE00FB6F894A895809385
:104C900060000FBE90936000FFCF88E19AE00FB6EE
:104CA000F894A895809360000FBE90936000FFCFAA
:104CB00080917203089508959B01BA019091B20307
:104CC0009430E9F48F708093E9009FEF8091E800C1
:104CD000915085FD06C085ED8A95F1F70000911190
:104CE000F5CF8091E80085FF0AC050E040E0C9019F
:104CF0000E940E298091E8008E778093E800089545
:104D000043E050E0BC0182E00E945C260895CF930E
:104D1000DF93EC0148E050E0BC0181E00E945C269A
:104D200088E0FE01AAE6B3E001900D928A95E1F7D2
:104D3000DF91CF9108958FE89CE00E940907809150
:104D4000B103811109C00E949E2A0E94FB2A809112
:104D5000E20084608093E20008958BE89CE00E946A
:104D600009071092B103089587E89CE00E940907A3
:104D70000E946325089583E89CE00E9409076091E2
:104D8000AE0381E0611101C080E00E945A250895C0
:104D90008FE79CE00E9409079091B20381E0943074
:104DA00009F080E06091AE030E9460250895209193
:104DB00068032F5F822F62E30E94942D992319F0DC
:104DC00020936803089510926803809169038823F3
:104DD000F1F08091B2038430C1F49091E9009F70AA
:104DE0002091EC00822F817020FD80E8892B93E0D8
:104DF0009093E9009091EB0090FF04C09091EE0039
:104E000097FD08C08F708093E900109269030895A0
:104E10001092F1009091E80095FDFACF9091E80092
:104E200090FFF0CF9091E8009E779093E800EACF52
:104E300042E061EC81E00E941A2A42E261EC82E0E9
:104E40000E941A2A42E261EC83E00E941A2A9091A1
:104E5000B20381E0943009F080E06091AE030E94DB
:104E6000502508958091B403833009F461C030F473
:104E70008130D1F1823009F49EC008958A3009F45E
:104E80008AC08B3009F46FC0893009F050C080911E
:104E9000B303813209F04BC08091B7039091B803FE
:104EA000029708F044C08091E800877F8093E80073
:104EB0008091E80082FF37C09091F3008091F2006A
:104EC000029731F48091F100813011F0863021F4A5
:104ED0008091F100809372038091E8008B7780933A
:104EE000E8000E944E2A23C08091B303813AF9F46E
:104EF0008091E800877F8093E8008091B7039091CC
:104F0000B803892B61F468E08AE693E070E00E94C0
:104F10005D298091E8008B778093E800089560E038
:104F200090E080E0F3CF8091B2038111C1CF08956A
:104F30008091B303813AD9F78091B7039091B80378
:104F4000892BA9F78091E800877F8093E800809102
:104F5000E80080FFFCCF809121018093F1008091D7
:104F6000E8008E77BCCF8091B303813201F7809146
:104F7000B7039091B803892BD1F68091E800877F21
:104F80008093E8000E944E2A8091B503809321010E
:104F90000E94C40C08958091B303813241F6809140
:104FA000E800877F8093E8000E944E2A8091B60334
:104FB0008093730308958091B303813A09F0B7CFCA
:104FC0008091E800877F8093E8008091E80080FF6F
:104FD000FCCF80917303C1CF9FB7F89410926903FF
:104FE0009FBF9091B203943009F048C02091E9002E
:104FF0002F703091EC00932F917030FD90E8922B40
:1050000023E02093E9002091EB0020FF34C02091A1
:10501000EE0027FF30C020916703222321F020916A
:10502000E80025FF28C01092670326E03091E800D1
:1050300035FF14C08093F1008091E80085FD27C002
:105040008091E80080FFFCCF8091E8008E7780930C
:10505000E8009F709093E90080E008953091B203DA
:10506000343049F43091EB0035FD05C0215041F456
:1050700081E0809367039F709093E9008FEF08951C
:10508000EFE9FFE03197F1F700C00000CFCF8FB715
:10509000F89421E0209369038FBFDBCF84B7877F2B
:1050A00084BF0FB6F894A8958091600088618093C2
:1050B0006000109260000FBE80E890E00FB6F89498
:1050C00080936100909361000FBE0E94692508954E
:1050D0000E949E2A0E94FB2AE2EEF0E0808184601A
:1050E000808378940E94792D089589E191E00E944F
:1050F000572408958091B203853051F48BE79CE0EA
:105100000E9409078091B203853019F00E94E325BF
:1051100008950E94B8258091B003882399F30E94D6
:105120007625882379F30E94F8280E94C40CEACFE0
:1051300008959A014091B9035091BA030E94A128A1
:105140000895492F55274330510521F168F4413026
:10515000510509F443C04230510509F444C090E0C0
:1051600080E050E040E026C04132510551F142322A
:105170005105A9F76330710590F7FB01EE0FFF1F92
:10518000EC57FD4F408151816F577D4FFB0180816E
:1051900090E010C099278130910581F0009729F0A7
:1051A0000297E9F6E3E9FCE002C0E7EBFCE084915A
:1051B00090E0AF01F901518340830895E9EAFCE0F2
:1051C000F6CF6330710558F6660F771FFB01E6577F
:1051D000FD4F4081518189E090E0ECCF82E190E089
:1051E00046E15DE0E7CF8BE590E04BEB5CE0E2CFA2
:1051F00080E189BD82E189BD09B400FEFDCF8091C7
:10520000D8008F7D8093D8008091E00082608093E9
:10521000E0008091E00081FDFCCF0895AF92BF9245
:10522000CF92DF92FF920F931F93CF93DF936C0186
:10523000EB018A010E946D2AF82E811123C001150D
:10524000110539F0F80180819181C81BD90BC80E76
:10525000D91EB12CA12C2097A9F08091E80085FDE2
:1052600022C08091E8008E778093E8000115110537
:10527000A1F0F80180819181A80EB91EB182A082AF
:1052800085E0F82E8F2DDF91CF911F910F91FF9028
:10529000DF90CF90BF90AF9008950E946D2A882331
:1052A000D1F2F82EEFCFF60181916F018093F100DA
:1052B0002197FFEFAF1ABF0ACECFFC018091B9034F
:1052C0009091BA0386179707A0F06115710529F42C
:1052D0009091E8009E779093E80090E06115710549
:1052E00051F4911108C08091E80082FF34C080E041
:1052F0000895BC01F2CF8091B2038823C1F18530BB
:10530000C1F18091E80083FD30C08091E80082FD0A
:10531000EACF8091E80080FFE1CF8091F3002091F7
:10532000F200382F6115710519F02830310558F059
:1053300091E02830310509F090E02091E8002E77C7
:105340002093E800CBCF81918093F10061507109E7
:105350002F5F3F4FE7CF8091B203882341F0853024
:1053600041F08091E80083FFBECF81E0089582E0A4
:10537000089583E00895FC018091B9039091BA03E8
:1053800086179707A0F06115710529F48091E80050
:105390008E778093E80090E06115710551F49111CA
:1053A00008C08091E80082FF35C080E00895BC010C
:1053B000F2CF8091B2038823C9F18530C9F1809181
:1053C000E80083FD31C08091E80082FDEACF809142
:1053D000E80080FFE1CF8091F3002091F200382FA8
:1053E0006115710519F02830310558F091E0283029
:1053F000310509F090E08091E8008E778093E80015
:10540000CBCF84918093F1003196615071092F5F69
:105410003F4FE6CF8091B203882341F0853041F0C1
:105420008091E80083FFBDCF81E0089582E0089578
:1054300083E00895982F973028F08F708093E900CB
:1054400081E008959093E900242F762F50E098177B
:1054500031F07091EC002091ED005091F00021FDB1
:1054600002C09F5FE8CF3091EB003E7F3093EB00AE
:105470003091ED003D7F3093ED003091EB003160D5
:105480003093EB007093EC002093ED005093F0000C
:105490002091EE0027FDE5CF80E008958091B303D1
:1054A00087FF13C08091E80082FF06C08091E8006A
:1054B0008B778093E80004C08091B2038111F2CF12
:1054C00008958091B2038823D9F38091E80080FF8A
:1054D000F8CF8091E8008E77ECCF2091E4003091F6
:1054E000E50095E6A9012091EC00822F817020FF54
:1054F00006C08091E80080FF06C080E008952091FA
:10550000E80022FD1AC08091B203882389F085301B
:1055100089F08091EB0085FD0FC02091E40030916F
:10552000E50042175307F9F29150E1F684E008953F
:1055300082E0089583E0089581E008950E940D2B94
:105540000E94152BE0EEF0E0808181608083E8ED21
:10555000F0E080818F77808319BCA7EDB0E08C915B
:105560008E7F8C9380818F7E80831092B10308950B
:105570000F931F93CF93DF930E940D2B0E94152B47
:10558000C8EDD0E088818F778883888180688883A0
:1055900088818F7D888319BC1092B2031092AE036C
:1055A0001092B0031092AF0300EE10E0F80180817A
:1055B0008B7F808388818160888342E060E080E027
:1055C0000E941A2AE1EEF0E080818E7F8083E2EE75
:1055D000F0E0808181608083808188608083F80131
:1055E00080818E7F8083888180618883DF91CF91E5
:1055F0001F910F910895E8EDF0E080818F7E808308
:10560000E7EDF0E080818160808384E082BF81E00B
:105610008093B1030E94B82A0895E8EDF0E08081FC
:105620008E7F80831092E20008951092DA0010922B
:10563000E10008951F920F920FB60F9211242F933D
:105640003F934F935F936F937F938F939F93AF930A
:10565000BF93EF93FF938091E10082FF0BC0809195
:10566000E20082FF07C08091E1008B7F8093E10020
:105670000E94D7268091DA0080FF19C08091D8005F
:1056800080FF15C08091DA008E7F8093DA008091D0
:10569000D90080FF96C080E189BD82E189BD09B44F
:1056A00000FEFDCF81E08093B2030E949B26809193
:1056B000E10080FF19C08091E20080FF15C0809159
:1056C000E2008E7F8093E2008091E200806180930F
:1056D000E2008091D80080628093D80019BC85E0F8
:1056E0008093B2030E94BB268091E10084FF2BC00F
:1056F0008091E20084FF27C080E189BD82E189BDFD
:1057000089B5982F917080FFFBCF8091D8008F7D55
:105710008093D8008091E1008F7E8093E10080919A
:10572000E2008F7E8093E2008091E20081608093AE
:10573000E2008091AE03882309F449C084E080939D
:10574000B2030E94C8268091E10083FF29C08091A6
:10575000E20083FF25C08091E100877F8093E10014
:1057600082E08093B2031092AE038091E1008E7FBD
:105770008093E1008091E2008E7F8093E20080912F
:10578000E20080618093E20042E060E080E00E94FD
:105790001A2A8091F00088608093F0000E94B4265D
:1057A000FF91EF91BF91AF919F918F917F916F91F9
:1057B0005F914F913F912F910F900FBE0F901F90CF
:1057C000189519BC1092B2030E94AD2670CF80913B
:1057D000E30087FD93E09093B203B3CF1F920F9243
:1057E0000FB60F9211242F933F934F935F936F93B4
:1057F0007F938F939F93AF93BF93CF93DF93EF9359
:10580000FF93D091E900DF708091EC00C82FC17048
:1058100080FDC0E81092E9008091F000877F8093BE
:10582000F00078940E94322C1092E9008091F000F0
:1058300088608093F000CD2BCF70C093E900FF917A
:10584000EF91DF91CF91BF91AF919F918F917F9118
:105850006F915F914F913F912F910F900FBE0F90DD
:105860001F901895AAE2B0E0E8E3FCE20C943E2E0B
:1058700083EB93E02091F100FC012193CF01F3E051
:105880008B3B9F07B9F70E9432278091E80083FF86
:105890001EC18091B3039091B4039A3008F017C1F0
:1058A000E92FF0E0E856F04D0C94F82D803899F08F
:1058B000823809F00CC18091B7038F70873008F0EF
:1058C00006C18093E9008091EB0085FB882780F971
:1058D0001092E90006C08091AF039091B00391113E
:1058E00082609091E800977F9093E8008093F100A8
:1058F0001092F1008091E8008E77E5C0882309F4CA
:10590000D3C0823009F0E3C08091B5038111D6C0C5
:105910008091B7038F702FEF280F263008F0D7C083
:105920008093E9002091EB0020FFC8C0933031F450
:105930008091EB0080628093EB00C0C09091EB00FF
:1059400090619093EB0021E030E001C0220F8A9536
:10595000EAF72093EA001092EA008091EB00886059
:10596000EACF8111B4C01091B5031F778091E30095
:105970008078812B8093E3008091E800877F80937B
:10598000E8000E944E2A8091E80080FFFCCF8091C1
:10599000E30080688093E30082E0111183E080934C
:1059A000B20395C08058823008F091C08091B50351
:1059B0009091B6038C3D23E09207A1F583E08A83A2
:1059C0008AE289834FB7F894DE01139620E03EE027
:1059D00051E2E32FF0E050935700E49120FF03C021
:1059E000E295EF703F5FEF708E2F90E0EA30C0F0ED
:1059F000C7968D939D932F5F243159F74FBF8091A8
:105A0000E800877F8093E8006AE270E0CE010196AB
:105A10000E945D298091E8008B778093E80057C051
:105A2000C096E7CF6091B7037091B803AE014F5FA6
:105A30005F4F0E949928BC01892B09F448C09091BE
:105A4000E800977F9093E80089819A810E94BB29A2
:105A5000E1CF8038E1F58091E800877F8093E8000E
:105A60008091AE038093F10045CF811130C09091B9
:105A7000B503923060F58091E800877F8093E8005D
:105A80009093AE030E944E2A8091AE03882311F0BA
:105A900084E005C08091E30087FDFACF81E0809328
:105AA000B2030E94182713C08091B503813079F4A6
:105AB00081E0933009F080E08093B0031092E90018
:105AC0008091E800877F8093E8000E944E2A8091B1
:105AD000E80083FF0AC08091E800877F8093E80098
